{
  "contractName": "LGE",
  "abi": [
    {
      "inputs": [
        {
          "internalType": "address",
          "name": "token",
          "type": "address"
        },
        {
          "internalType": "address",
          "name": "owner",
          "type": "address"
        },
        {
          "internalType": "address",
          "name": "_fund",
          "type": "address"
        }
      ],
      "stateMutability": "nonpayable",
      "type": "constructor"
    },
    {
      "anonymous": false,
      "inputs": [
        {
          "indexed": false,
          "internalType": "address",
          "name": "dst",
          "type": "address"
        },
        {
          "indexed": false,
          "internalType": "uint256",
          "name": "value",
          "type": "uint256"
        }
      ],
      "name": "LPTokenClaimed",
      "type": "event"
    },
    {
      "anonymous": false,
      "inputs": [
        {
          "indexed": true,
          "internalType": "address",
          "name": "dst",
          "type": "address"
        },
        {
          "indexed": false,
          "internalType": "uint256",
          "name": "value",
          "type": "uint256"
        }
      ],
      "name": "LiquidityAdded",
      "type": "event"
    },
    {
      "anonymous": false,
      "inputs": [
        {
          "indexed": true,
          "internalType": "address",
          "name": "previousOwner",
          "type": "address"
        },
        {
          "indexed": true,
          "internalType": "address",
          "name": "newOwner",
          "type": "address"
        }
      ],
      "name": "OwnershipTransferred",
      "type": "event"
    },
    {
      "inputs": [],
      "name": "IPAIR",
      "outputs": [
        {
          "internalType": "contract IUniswapV2Pair",
          "name": "",
          "type": "address"
        }
      ],
      "stateMutability": "view",
      "type": "function"
    },
    {
      "inputs": [],
      "name": "LGEFinished",
      "outputs": [
        {
          "internalType": "bool",
          "name": "",
          "type": "bool"
        }
      ],
      "stateMutability": "view",
      "type": "function"
    },
    {
      "inputs": [],
      "name": "LPGenerationCompleted",
      "outputs": [
        {
          "internalType": "bool",
          "name": "",
          "type": "bool"
        }
      ],
      "stateMutability": "view",
      "type": "function"
    },
    {
      "inputs": [],
      "name": "LPperETHUnit",
      "outputs": [
        {
          "internalType": "uint256",
          "name": "",
          "type": "uint256"
        }
      ],
      "stateMutability": "view",
      "type": "function"
    },
    {
      "inputs": [],
      "name": "airdropTotal",
      "outputs": [
        {
          "internalType": "uint256",
          "name": "",
          "type": "uint256"
        }
      ],
      "stateMutability": "view",
      "type": "function"
    },
    {
      "inputs": [
        {
          "internalType": "address",
          "name": "",
          "type": "address"
        }
      ],
      "name": "confirmedAirdrop",
      "outputs": [
        {
          "internalType": "uint256",
          "name": "",
          "type": "uint256"
        }
      ],
      "stateMutability": "view",
      "type": "function"
    },
    {
      "inputs": [],
      "name": "contractStartTimestamp",
      "outputs": [
        {
          "internalType": "uint256",
          "name": "",
          "type": "uint256"
        }
      ],
      "stateMutability": "view",
      "type": "function"
    },
    {
      "inputs": [
        {
          "internalType": "address",
          "name": "",
          "type": "address"
        }
      ],
      "name": "ethContributed",
      "outputs": [
        {
          "internalType": "uint256",
          "name": "",
          "type": "uint256"
        }
      ],
      "stateMutability": "view",
      "type": "function"
    },
    {
      "inputs": [],
      "name": "fund",
      "outputs": [
        {
          "internalType": "address",
          "name": "",
          "type": "address"
        }
      ],
      "stateMutability": "view",
      "type": "function"
    },
    {
      "inputs": [],
      "name": "fundFee",
      "outputs": [
        {
          "internalType": "uint256",
          "name": "",
          "type": "uint256"
        }
      ],
      "stateMutability": "view",
      "type": "function"
    },
    {
      "inputs": [],
      "name": "fundPctLiq",
      "outputs": [
        {
          "internalType": "uint256",
          "name": "",
          "type": "uint256"
        }
      ],
      "stateMutability": "view",
      "type": "function"
    },
    {
      "inputs": [],
      "name": "lgeLength",
      "outputs": [
        {
          "internalType": "uint256",
          "name": "",
          "type": "uint256"
        }
      ],
      "stateMutability": "view",
      "type": "function"
    },
    {
      "inputs": [],
      "name": "owner",
      "outputs": [
        {
          "internalType": "address",
          "name": "",
          "type": "address"
        }
      ],
      "stateMutability": "view",
      "type": "function"
    },
    {
      "inputs": [
        {
          "internalType": "address",
          "name": "",
          "type": "address"
        }
      ],
      "name": "registeredAirdrop",
      "outputs": [
        {
          "internalType": "uint256",
          "name": "",
          "type": "uint256"
        }
      ],
      "stateMutability": "view",
      "type": "function"
    },
    {
      "inputs": [],
      "name": "renounceOwnership",
      "outputs": [],
      "stateMutability": "nonpayable",
      "type": "function"
    },
    {
      "inputs": [],
      "name": "tokenPerEth",
      "outputs": [
        {
          "internalType": "uint256",
          "name": "",
          "type": "uint256"
        }
      ],
      "stateMutability": "view",
      "type": "function"
    },
    {
      "inputs": [],
      "name": "totalETHContributed",
      "outputs": [
        {
          "internalType": "uint256",
          "name": "",
          "type": "uint256"
        }
      ],
      "stateMutability": "view",
      "type": "function"
    },
    {
      "inputs": [],
      "name": "totalLPTokensMinted",
      "outputs": [
        {
          "internalType": "uint256",
          "name": "",
          "type": "uint256"
        }
      ],
      "stateMutability": "view",
      "type": "function"
    },
    {
      "inputs": [
        {
          "internalType": "address",
          "name": "newOwner",
          "type": "address"
        }
      ],
      "name": "transferOwnership",
      "outputs": [],
      "stateMutability": "nonpayable",
      "type": "function"
    },
    {
      "stateMutability": "payable",
      "type": "receive"
    },
    {
      "inputs": [
        {
          "internalType": "uint256",
          "name": "total",
          "type": "uint256"
        }
      ],
      "name": "registerAirdrop",
      "outputs": [],
      "stateMutability": "nonpayable",
      "type": "function"
    },
    {
      "inputs": [
        {
          "internalType": "uint256",
          "name": "_minEth",
          "type": "uint256"
        }
      ],
      "name": "setMinEth",
      "outputs": [],
      "stateMutability": "nonpayable",
      "type": "function"
    },
    {
      "inputs": [
        {
          "internalType": "uint256",
          "name": "_maxEth",
          "type": "uint256"
        }
      ],
      "name": "setMaxEth",
      "outputs": [],
      "stateMutability": "nonpayable",
      "type": "function"
    },
    {
      "inputs": [
        {
          "internalType": "uint256",
          "name": "_cap",
          "type": "uint256"
        }
      ],
      "name": "setCap",
      "outputs": [],
      "stateMutability": "nonpayable",
      "type": "function"
    },
    {
      "inputs": [
        {
          "internalType": "address",
          "name": "_fund",
          "type": "address"
        }
      ],
      "name": "setFund",
      "outputs": [],
      "stateMutability": "nonpayable",
      "type": "function"
    },
    {
      "inputs": [
        {
          "internalType": "address",
          "name": "_token",
          "type": "address"
        }
      ],
      "name": "setToken",
      "outputs": [],
      "stateMutability": "nonpayable",
      "type": "function"
    },
    {
      "inputs": [
        {
          "internalType": "uint256",
          "name": "_fundPctLiq",
          "type": "uint256"
        }
      ],
      "name": "setFundPctLiq",
      "outputs": [],
      "stateMutability": "nonpayable",
      "type": "function"
    },
    {
      "inputs": [
        {
          "internalType": "uint256",
          "name": "_tokenPerEth",
          "type": "uint256"
        }
      ],
      "name": "setTokenPerEth",
      "outputs": [],
      "stateMutability": "nonpayable",
      "type": "function"
    },
    {
      "inputs": [
        {
          "internalType": "uint256",
          "name": "_lgeLength",
          "type": "uint256"
        }
      ],
      "name": "setLGELength",
      "outputs": [],
      "stateMutability": "nonpayable",
      "type": "function"
    },
    {
      "inputs": [],
      "name": "startLGE",
      "outputs": [],
      "stateMutability": "nonpayable",
      "type": "function"
    },
    {
      "inputs": [],
      "name": "setLGEFinished",
      "outputs": [],
      "stateMutability": "nonpayable",
      "type": "function"
    },
    {
      "inputs": [],
      "name": "lgeInProgress",
      "outputs": [
        {
          "internalType": "bool",
          "name": "",
          "type": "bool"
        }
      ],
      "stateMutability": "view",
      "type": "function"
    },
    {
      "inputs": [
        {
          "internalType": "address",
          "name": "to",
          "type": "address"
        }
      ],
      "name": "emergencyRescueEth",
      "outputs": [],
      "stateMutability": "nonpayable",
      "type": "function"
    },
    {
      "inputs": [],
      "name": "generateLPTokens",
      "outputs": [],
      "stateMutability": "nonpayable",
      "type": "function"
    },
    {
      "inputs": [],
      "name": "addLiquidity",
      "outputs": [],
      "stateMutability": "payable",
      "type": "function"
    },
    {
      "inputs": [],
      "name": "claimLPTokens",
      "outputs": [],
      "stateMutability": "nonpayable",
      "type": "function"
    }
  ],
  "bytecode": "0x60806040526107d06003556706f05b59d3b20000600c5568056bc75e2d63100000600d55683635c9adc5dea00000600e556107d0600f5562093a8060105534801561004957600080fd5b506040516122d13803806122d18339818101604052606081101561006c57600080fd5b5080516020820151604092830151600080546001600160a01b0319166001600160a01b0384169081178255945193949293919284929091907f8be0079c531659141344cd1fd0a4f28419497f9722a3daafe3b4186f6b6457e0908290a350600180546001600160a01b038084166001600160a01b031992831617909255600680548216735c69bee701ef814a2b6a3edd4b1652cb9cc5aa6f179055600780548216737a250d5630b4cf539739df2c5dacb4c659f2488d179081905560058054878516931692909217909155604080516315ab88c960e31b81529051600093929092169163ad5c464891600480820192602092909190829003018186803b15801561017557600080fd5b505afa158015610189573d6000803e3d6000fd5b505050506040513d602081101561019f57600080fd5b5051600480546001600160a01b039092166001600160a01b0319909216919091179055505050506120fc806101d56000396000f3fe6080604052600436106102075760003560e01c806347786d3711610118578063af4c3fd5116100a0578063c033e2621161006f578063c033e2621461062a578063c8b7fd841461063f578063e8078d9414610672578063f2fde38b1461067a578063f96f5b35146106ad57610262565b8063af4c3fd5146105c1578063b60d4288146105d6578063b73caac8146105eb578063beaf7d6a1461061557610262565b806383fab405116100e757806383fab4051461051957806384d82c581461052e578063854d9ed9146105585780638da5cb5b14610582578063a9c1873c1461059757610262565b806347786d37146104925780635551d538146104bc5780636a2f796c146104ef578063715018a61461050457610262565b8063183c758b1161019b57806331a22a201161016a57806331a22a201461041457806333abd02814610429578063354bd1fc1461043e57806338af66321461045357806342226e021461046857610262565b8063183c758b146103a25780631ef28bc1146103d5578063201e49fc146103ea57806323399434146103ff57610262565b8063144fa6d7116101d7578063144fa6d7146102eb57806314ab11a71461031e57806314b8fecc14610348578063183bb8941461037157610262565b80622b1329146102675780630a0844731461028e5780630cc312c3146102a35780630e21750f146102b857610262565b36610262576102146106e0565b610258576040805162461bcd60e51b815260206004820152601060248201526f214c474520696e2070726f677265737360801b604482015290519081900360640190fd5b610260610724565b005b600080fd5b34801561027357600080fd5b5061027c6108a3565b60408051918252519081900360200190f35b34801561029a57600080fd5b5061027c6108a9565b3480156102af57600080fd5b506102606108af565b3480156102c457600080fd5b50610260600480360360208110156102db57600080fd5b50356001600160a01b0316610916565b3480156102f757600080fd5b506102606004803603602081101561030e57600080fd5b50356001600160a01b03166109a3565b34801561032a57600080fd5b506102606004803603602081101561034157600080fd5b5035610a30565b34801561035457600080fd5b5061035d610a54565b604080519115158252519081900360200190f35b34801561037d57600080fd5b50610386610a5d565b604080516001600160a01b039092168252519081900360200190f35b3480156103ae57600080fd5b50610260600480360360208110156103c557600080fd5b50356001600160a01b0316610a6c565b3480156103e157600080fd5b50610260610c1a565b3480156103f657600080fd5b50610260610c78565b34801561040b57600080fd5b5061027c6112fc565b34801561042057600080fd5b5061027c611302565b34801561043557600080fd5b5061027c611308565b34801561044a57600080fd5b5061027c61130e565b34801561045f57600080fd5b50610260611314565b34801561047457600080fd5b506102606004803603602081101561048b57600080fd5b50356114f4565b34801561049e57600080fd5b50610260600480360360208110156104b557600080fd5b503561157b565b3480156104c857600080fd5b5061027c600480360360208110156104df57600080fd5b50356001600160a01b0316611604565b3480156104fb57600080fd5b5061027c611616565b34801561051057600080fd5b5061026061161c565b34801561052557600080fd5b5061035d6116be565b34801561053a57600080fd5b506102606004803603602081101561055157600080fd5b50356116c7565b34801561056457600080fd5b506102606004803603602081101561057b57600080fd5b5035611749565b34801561058e57600080fd5b506103866117cf565b3480156105a357600080fd5b50610260600480360360208110156105ba57600080fd5b50356117de565b3480156105cd57600080fd5b5061035d6106e0565b3480156105e257600080fd5b50610386611880565b3480156105f757600080fd5b506102606004803603602081101561060e57600080fd5b503561188f565b34801561062157600080fd5b5061027c61193f565b34801561063657600080fd5b5061027c611945565b34801561064b57600080fd5b5061027c6004803603602081101561066257600080fd5b50356001600160a01b031661194b565b61026061195d565b34801561068657600080fd5b506102606004803603602081101561069d57600080fd5b50356001600160a01b03166119b3565b3480156106b957600080fd5b5061027c600480360360208110156106d057600080fd5b50356001600160a01b0316611aab565b60006106ea611abd565b15806106f8575060125460ff165b1561070557506000610721565b4261071d601054601154611ac590919063ffffffff16565b1190505b90565b600c54341015610765576040805162461bcd60e51b8152602060048201526007602482015266042dad2dc8ae8d60cb1b604482015290519081900360640190fd5b600061078861271061078260035434611b2890919063ffffffff16565b90611b81565b6002549091506107989082611ac5565b6002556040805180820190915260048152632166656560e01b60208201526000906107c69034908490611bc3565b3360009081526017602052604090208054820190819055600d5491925011156107ee57600080fd5b6015546107fb9082611ac5565b6015819055600e54101561083f576040805162461bcd60e51b815260206004808301919091526024820152630216361760e41b604482015290519081900360640190fd5b600f548102801561086857600154600554610868916001600160a01b0391821691163084611c5f565b60408051348152905133917fc17cea59c2955cb181b03393209566960365771dbba9dc3d510180e7cb312088919081900360200190a2505050565b60145481565b600f5481565b6108b7611cbf565b6000546001600160a01b03908116911614610907576040805162461bcd60e51b8152602060048201819052602482015260008051602061207d833981519152604482015290519081900360640190fd5b6012805460ff19166001179055565b61091e611cbf565b6000546001600160a01b0390811691161461096e576040805162461bcd60e51b8152602060048201819052602482015260008051602061207d833981519152604482015290519081900360640190fd5b6001600160a01b03811661098157600080fd5b600180546001600160a01b0319166001600160a01b0392909216919091179055565b6109ab611cbf565b6000546001600160a01b039081169116146109fb576040805162461bcd60e51b8152602060048201819052602482015260008051602061207d833981519152604482015290519081900360640190fd5b6001600160a01b038116610a0e57600080fd5b600580546001600160a01b0319166001600160a01b0392909216919091179055565b33600090815260096020526040902080549082905560088054919091039091019055565b60165460ff1681565b600b546001600160a01b031681565b610a74611cbf565b6000546001600160a01b03908116911614610ac4576040805162461bcd60e51b8152602060048201819052602482015260008051602061207d833981519152604482015290519081900360640190fd5b6001600160a01b038116610b05576040805162461bcd60e51b815260206004820152600360248201526221746f60e81b604482015290519081900360640190fd5b610b296202a300610b23601054601154611ac590919063ffffffff16565b90611ac5565b421015610b7d576040805162461bcd60e51b815260206004820152601f60248201527f6d7573742062652032206461797320616674657220656e64206f66206c676500604482015290519081900360640190fd5b6040516000906001600160a01b0383169047908381818185875af1925050503d8060008114610bc8576040519150601f19603f3d011682016040523d82523d6000602084013e610bcd565b606091505b5050905080610c16576040805162461bcd60e51b815260206004820152601060248201526f2a3930b739b332b9103330b4b632b21760811b604482015290519081900360640190fd5b5050565b610c22611cbf565b6000546001600160a01b03908116911614610c72576040805162461bcd60e51b8152602060048201819052602482015260008051602061207d833981519152604482015290519081900360640190fd5b42601155565b610c806106e0565b15610cca576040805162461bcd60e51b81526020600482015260156024820152744c4745207374696c6c20696e2070726f677265737360581b604482015290519081900360640190fd5b60165460ff1615610d22576040805162461bcd60e51b815260206004820152601b60248201527f4c5020746f6b656e7320616c72656164792067656e6572617465640000000000604482015290519081900360640190fd5b601554600654600480546005546040805163e6a4390560e01b81526001600160a01b0393841694810194909452908216602484015251600093919091169163e6a43905916044808301926020929190829003018186803b158015610d8557600080fd5b505afa158015610d99573d6000803e3d6000fd5b505050506040513d6020811015610daf57600080fd5b505190506001600160a01b038116610e4e5760065460048054600554604080516364e329cb60e11b81526001600160a01b039384169481019490945290821660248401525192169163c9c65396916044808201926020929091908290030181600087803b158015610e1f57600080fd5b505af1158015610e33573d6000803e3d6000fd5b505050506040513d6020811015610e4957600080fd5b505190505b600b80546001600160a01b0319166001600160a01b03838116919091179091556004805460408051630d0e30db60e41b81529051919093169263d0e30db0928692828201926000929082900301818588803b158015610eac57600080fd5b505af1158015610ec0573d6000803e3d6000fd5b505060048054604080516370a0823160e01b81523093810193909352518795506001600160a01b0390911693506370a0823192506024808301926020929190829003018186803b158015610f1357600080fd5b505afa158015610f27573d6000803e3d6000fd5b505050506040513d6020811015610f3d57600080fd5b505114610f79576040805162461bcd60e51b8152602060048201526005602482015264042eecae8d60db1b604482015290519081900360640190fd5b60048054600b546040805163a9059cbb60e01b81526001600160a01b0392831694810194909452602484018690525191169163a9059cbb9160448083019260209291908290030181600087803b158015610fd257600080fd5b505af1158015610fe6573d6000803e3d6000fd5b505050506040513d6020811015610ffc57600080fd5b5050600554604080516370a0823160e01b815230600482015290516000926001600160a01b0316916370a08231916024808301926020929190829003018186803b15801561104957600080fd5b505afa15801561105d573d6000803e3d6000fd5b505050506040513d602081101561107357600080fd5b5051600b54600554919250611095916001600160a01b03908116911683611cc3565b600b54604080516335313c2160e11b815230600482015290516001600160a01b0390921691636a627842916024808201926020929091908290030181600087803b1580156110e257600080fd5b505af11580156110f6573d6000803e3d6000fd5b505050506040513d602081101561110c57600080fd5b5050600b54604080516370a0823160e01b815230600482015290516001600160a01b03909216916370a0823191602480820192602092909190829003018186803b15801561115957600080fd5b505afa15801561116d573d6000803e3d6000fd5b505050506040513d602081101561118357600080fd5b505160148190556111d0576040805162461bcd60e51b815260206004820152601260248201527113140818dc99585d1a5bdb8819985a5b195960721b604482015290519081900360640190fd5b6001546001600160a01b03161561127e576001546040516000916001600160a01b03169047908381818185875af1925050503d806000811461122e576040519150601f19603f3d011682016040523d82523d6000602084013e611233565b606091505b505090508061127c576040805162461bcd60e51b815260206004820152601060248201526f2a3930b739b332b9103330b4b632b21760811b604482015290519081900360640190fd5b505b61129f83610782670de0b6b3a7640000601454611b2890919063ffffffff16565b60138190556112ea576040805162461bcd60e51b815260206004820152601260248201527113140818dc99585d1a5bdb8819985a5b195960721b604482015290519081900360640190fd5b50506016805460ff1916600117905550565b60155481565b60135481565b60025481565b60085481565b60165460ff1661135b576040805162461bcd60e51b815260206004820152600d60248201526c0853140819d95b995c985d1959609a1b604482015290519081900360640190fd5b33600090815260096020908152604080832080549084905560179092528220805492905590806113d2576040805162461bcd60e51b815260206004820152601c60248201527f4e6f7468696e6720746f20636c61696d2c206d6f766520616c6f6e6700000000604482015290519081900360640190fd5b60006113ef61271061078260035486611b2890919063ffffffff16565b9050808303821061140d57336000908152600a602052604090208290555b6000611430670de0b6b3a764000061078260135486611b2890919063ffffffff16565b600b546040805163a9059cbb60e01b81523360048201526024810184905290519293506001600160a01b039091169163a9059cbb916044808201926020929091908290030181600087803b15801561148757600080fd5b505af115801561149b573d6000803e3d6000fd5b505050506040513d60208110156114b157600080fd5b5050604080513381526020810183905281517f586e28f4f60b4d906fc69694ea6d7fe5c5668730ce3286d7af8eca868f3c2760929181900390910190a150505050565b6114fc611cbf565b6000546001600160a01b0390811691161461154c576040805162461bcd60e51b8152602060048201819052602482015260008051602061207d833981519152604482015290519081900360640190fd5b678ac7230489e80000811015801561156d5750686c6b935b8bbd4000008111155b61157657600080fd5b600d55565b611583611cbf565b6000546001600160a01b039081169116146115d3576040805162461bcd60e51b8152602060048201819052602482015260008051602061207d833981519152604482015290519081900360640190fd5b681b1ae4d6e2ef50000081101580156115f65750690a968163f0a57b4000008111155b6115ff57600080fd5b600e55565b60096020526000908152604090205481565b60115481565b611624611cbf565b6000546001600160a01b03908116911614611674576040805162461bcd60e51b8152602060048201819052602482015260008051602061207d833981519152604482015290519081900360640190fd5b600080546040516001600160a01b03909116907f8be0079c531659141344cd1fd0a4f28419497f9722a3daafe3b4186f6b6457e0908390a3600080546001600160a01b0319169055565b60125460ff1681565b6116cf611cbf565b6000546001600160a01b0390811691161461171f576040805162461bcd60e51b8152602060048201819052602482015260008051602061207d833981519152604482015290519081900360640190fd5b80158061173b57506103e8811015801561173b57506113888111155b61174457600080fd5b600355565b611751611cbf565b6000546001600160a01b039081169116146117a1576040805162461bcd60e51b8152602060048201819052602482015260008051602061207d833981519152604482015290519081900360640190fd5b67016345785d8a000081101580156117c15750671bc16d674ec800008111155b6117ca57600080fd5b600c55565b6000546001600160a01b031690565b6117e6611cbf565b6000546001600160a01b03908116911614611836576040805162461bcd60e51b8152602060048201819052602482015260008051602061207d833981519152604482015290519081900360640190fd5b600181101561187b576040805162461bcd60e51b815260206004820152600c60248201526b042e8ded6cadca0cae48ae8d60a31b604482015290519081900360640190fd5b600f55565b6001546001600160a01b031681565b611897611cbf565b6000546001600160a01b039081169116146118e7576040805162461bcd60e51b8152602060048201819052602482015260008051602061207d833981519152604482015290519081900360640190fd5b611c2081101580156118fc5750621275008111155b61193a576040805162461bcd60e51b815260206004820152600a602482015269042d8ceca98cadccee8d60b31b604482015290519081900360640190fd5b601055565b60105481565b60035481565b600a6020526000908152604090205481565b6119656106e0565b6119a9576040805162461bcd60e51b815260206004820152601060248201526f214c474520696e2070726f677265737360801b604482015290519081900360640190fd5b6119b1610724565b565b6119bb611cbf565b6000546001600160a01b03908116911614611a0b576040805162461bcd60e51b8152602060048201819052602482015260008051602061207d833981519152604482015290519081900360640190fd5b6001600160a01b038116611a505760405162461bcd60e51b81526004018080602001828103825260268152602001806120106026913960400191505060405180910390fd5b600080546040516001600160a01b03808516939216917f8be0079c531659141344cd1fd0a4f28419497f9722a3daafe3b4186f6b6457e091a3600080546001600160a01b0319166001600160a01b0392909216919091179055565b60176020526000908152604090205481565b601154151590565b600082820183811015611b1f576040805162461bcd60e51b815260206004820152601b60248201527f536166654d6174683a206164646974696f6e206f766572666c6f770000000000604482015290519081900360640190fd5b90505b92915050565b600082611b3757506000611b22565b82820282848281611b4457fe5b0414611b1f5760405162461bcd60e51b815260040180806020018281038252602181526020018061205c6021913960400191505060405180910390fd5b6000611b1f83836040518060400160405280601a81526020017f536166654d6174683a206469766973696f6e206279207a65726f000000000000815250611d1a565b60008184841115611c525760405162461bcd60e51b81526004018080602001828103825283818151815260200191508051906020019080838360005b83811015611c17578181015183820152602001611bff565b50505050905090810190601f168015611c445780820380516001836020036101000a031916815260200191505b509250505060405180910390fd5b50508183035b9392505050565b604080516001600160a01b0380861660248301528416604482015260648082018490528251808303909101815260849091019091526020810180516001600160e01b03166323b872dd60e01b179052611cb9908590611d7f565b50505050565b3390565b604080516001600160a01b038416602482015260448082018490528251808303909101815260649091019091526020810180516001600160e01b031663a9059cbb60e01b179052611d15908490611d7f565b505050565b60008183611d695760405162461bcd60e51b8152602060048201818152835160248401528351909283926044909101919085019080838360008315611c17578181015183820152602001611bff565b506000838581611d7557fe5b0495945050505050565b6060611dd4826040518060400160405280602081526020017f5361666545524332303a206c6f772d6c6576656c2063616c6c206661696c6564815250856001600160a01b0316611e309092919063ffffffff16565b805190915015611d1557808060200190516020811015611df357600080fd5b5051611d155760405162461bcd60e51b815260040180806020018281038252602a81526020018061209d602a913960400191505060405180910390fd5b6060611e3f8484600085611e47565b949350505050565b606082471015611e885760405162461bcd60e51b81526004018080602001828103825260268152602001806120366026913960400191505060405180910390fd5b611e9185611fa3565b611ee2576040805162461bcd60e51b815260206004820152601d60248201527f416464726573733a2063616c6c20746f206e6f6e2d636f6e7472616374000000604482015290519081900360640190fd5b60006060866001600160a01b031685876040518082805190602001908083835b60208310611f215780518252601f199092019160209182019101611f02565b6001836020036101000a03801982511681845116808217855250505050505090500191505060006040518083038185875af1925050503d8060008114611f83576040519150601f19603f3d011682016040523d82523d6000602084013e611f88565b606091505b5091509150611f98828286611fa9565b979650505050505050565b3b151590565b60608315611fb8575081611c58565b825115611fc85782518084602001fd5b60405162461bcd60e51b8152602060048201818152845160248401528451859391928392604401919085019080838360008315611c17578181015183820152602001611bff56fe4f776e61626c653a206e6577206f776e657220697320746865207a65726f2061646472657373416464726573733a20696e73756666696369656e742062616c616e636520666f722063616c6c536166654d6174683a206d756c7469706c69636174696f6e206f766572666c6f774f776e61626c653a2063616c6c6572206973206e6f7420746865206f776e65725361666545524332303a204552433230206f7065726174696f6e20646964206e6f742073756363656564a26469706673582212204e9b6c80c60aa295022513aa50f6c138b0e2d207913252751792371b6c49934c64736f6c634300060c0033",
  "immutableReferences": {},
  "source": "// SPDX-License-Identifier: Apache-2.0\npragma solidity >=0.6.12;\nimport \"@openzeppelin/contracts/utils/Address.sol\";\nimport \"@openzeppelin/contracts/token/ERC20/IERC20.sol\";\nimport \"@openzeppelin/contracts/token/ERC20/SafeERC20.sol\";\nimport \"./Ownable.sol\";\nimport \"./utils/Console.sol\";\nimport \"./interfaces/IWETH.sol\";\nimport \"./interfaces/IUniswapV2Pair.sol\";\nimport \"./interfaces/IUniswapV2Factory.sol\";\nimport \"./interfaces/IUniswapV2Router02.sol\";\n\ncontract LGE is Ownable {\n  using SafeMath for uint256;\n  using Address for address;\n  using SafeERC20 for IERC20;\n\n  event LPTokenClaimed(address dst, uint value);\n  event LiquidityAdded(address indexed dst, uint value);\n\n  address public fund;\n  uint256 public fundFee;\n  uint256 public fundPctLiq = 2000;\n\n  uint256 constant FUND_BASE = 10000;\n  uint256 constant MIN_FUND_PCT = 1000;\n  uint256 constant MAX_FUND_PCT = 5000;\n  uint256 constant MIN_LGE_LENGTH = 2 hours;\n  uint256 constant MAX_LGE_LENGTH = 14 days;\n  uint256 constant MIN_TOKEN_PER_ETH = 1;\n  uint256 constant MIN_MIN_ETH = 1 ether / 10;\n  uint256 constant MAX_MIN_ETH = 2 ether;\n  uint256 constant MIN_MAX_ETH = 10 ether;\n  uint256 constant MAX_MAX_ETH = 2000 ether;\n  uint256 constant MIN_CAP = 500 ether;\n  uint256 constant MAX_CAP = 50_000 ether;\n  uint256 constant PRECISION = 1e18;\n\n  IWETH Iweth;\n  IERC20 ITOKEN;\n  IUniswapV2Factory uniswapFactory;\n  IUniswapV2Router02 uniswapRouterV2;\n\n  uint256 public airdropTotal;\n  mapping (address => uint256) public registeredAirdrop;\n  mapping (address => uint256) public confirmedAirdrop;\n\n  IUniswapV2Pair public IPAIR;\n  uint256 minEth = 1 ether / 2;\n  uint256 maxEth = 100 ether;\n  uint256 cap = 1000 ether;\n  uint256 public tokenPerEth = 2000;\n  uint256 public lgeLength = 7 days;\n  uint256 public contractStartTimestamp;\n  bool public LGEFinished;\n  uint256 public LPperETHUnit;\n  uint256 public totalLPTokensMinted;\n  uint256 public totalETHContributed;\n  bool public LPGenerationCompleted;\n  mapping (address => uint)  public ethContributed;\n\n  constructor(address token, address owner, address _fund) public Ownable(owner) {\n    fund = _fund;\n    uniswapFactory = IUniswapV2Factory(0x5C69bEe701ef814a2B6a3EDD4B1652CB9cc5aA6f);\n    uniswapRouterV2 = IUniswapV2Router02(0x7a250d5630B4cF539739dF2C5dAcb4c659F2488D);\n\n    ITOKEN = IERC20(token);\n    address WETH = uniswapRouterV2.WETH();\n    Iweth = IWETH(WETH);\n  }\n\n  function registerAirdrop(uint256 total) external {\n    uint256 current = registeredAirdrop[msg.sender];\n    registeredAirdrop[msg.sender] = total;\n    airdropTotal = airdropTotal - current + total;\n  }\n\n  function setMinEth(uint256 _minEth) onlyOwner external {\n    require(_minEth >= MIN_MIN_ETH && _minEth <= MAX_MIN_ETH);\n    minEth = _minEth;\n  }\n\n  function setMaxEth(uint256 _maxEth) onlyOwner external {\n    require(_maxEth >= MIN_MAX_ETH && _maxEth <= MAX_MAX_ETH);\n    maxEth = _maxEth;\n  }\n\n  function setCap(uint256 _cap) onlyOwner external {\n    require(_cap >= MIN_CAP && _cap <= MAX_CAP);\n    cap = _cap;\n  }\n\n  function setFund(address _fund) onlyOwner external {\n    require(_fund != address(0));\n    fund = _fund;\n  }\n\n  function setToken(address _token) onlyOwner external {\n    require(_token != address(0));\n    ITOKEN = IERC20(_token);\n  }\n\n  function setFundPctLiq(uint256 _fundPctLiq) onlyOwner external {\n    require(_fundPctLiq == 0 || (_fundPctLiq >= MIN_FUND_PCT && _fundPctLiq <= MAX_FUND_PCT));\n    fundPctLiq = _fundPctLiq;\n  }\n\n  function setTokenPerEth(uint256 _tokenPerEth) onlyOwner external {\n    require(_tokenPerEth >= MIN_TOKEN_PER_ETH, '!tokenPerEth');\n    tokenPerEth = _tokenPerEth;\n  }\n\n  function setLGELength(uint256 _lgeLength) onlyOwner external {\n    require(_lgeLength >= MIN_LGE_LENGTH && _lgeLength <= MAX_LGE_LENGTH, '!lgeLength');\n    lgeLength = _lgeLength;\n  }\n\n  function startLGE() onlyOwner external {\n    contractStartTimestamp = block.timestamp;\n  }\n\n  function _LGEStarted() internal view returns (bool) {\n    return contractStartTimestamp != 0;\n  }\n\n  function setLGEFinished() public onlyOwner {\n    LGEFinished = true;\n  }\n\n  function lgeInProgress() public view returns (bool) {\n    if (!_LGEStarted() || LGEFinished) {\n        return false;\n    }\n    return contractStartTimestamp.add(lgeLength) > block.timestamp;\n  }\n\n  function emergencyRescueEth(address to) onlyOwner external {\n    require(to != address(0), '!to');\n    require(block.timestamp >= contractStartTimestamp.add(lgeLength).add(2 days), 'must be 2 days after end of lge');\n    (bool success, ) = to.call.value(address(this).balance)(\"\");\n    require(success, \"Transfer failed.\");\n  }\n\n  function generateLPTokens() public {\n    require(lgeInProgress() == false, \"LGE still in progress\");\n    require(LPGenerationCompleted == false, \"LP tokens already generated\");\n    uint256 total = totalETHContributed; // gas\n\n    // create pair\n    address _pair = uniswapFactory.getPair(address(Iweth), address(ITOKEN));\n    if (_pair == address(0)) {\n      _pair = uniswapFactory.createPair(address(Iweth), address(ITOKEN));\n    }\n    IPAIR = IUniswapV2Pair(_pair);\n\n    //Wrap eth\n    Iweth.deposit{ value: total }();\n    require(IERC20(address(Iweth)).balanceOf(address(this)) == total, '!weth');\n    Iweth.transfer(address(IPAIR), total);\n\n    uint256 tokenBalance = ITOKEN.balanceOf(address(this));\n    ITOKEN.safeTransfer(address(IPAIR), tokenBalance);\n    IPAIR.mint(address(this));\n    totalLPTokensMinted = IPAIR.balanceOf(address(this));\n    require(totalLPTokensMinted != 0 , \"LP creation failed\");\n    if (fund != address(0)) {\n      // send remaining ETH to fund\n      (bool success, ) = fund.call.value(address(this).balance)(\"\");\n      require(success, \"Transfer failed.\");\n    }\n    // Calculate LP tokens per eth\n    LPperETHUnit = totalLPTokensMinted.mul(PRECISION).div(total);\n    require(LPperETHUnit != 0 , \"LP creation failed\");\n    LPGenerationCompleted = true;\n  }\n\n  receive() external payable {\n    require(lgeInProgress(), \"!LGE in progress\");\n    _addLiquidity();\n  }\n\n  function addLiquidity() public payable {\n    require(lgeInProgress(), \"!LGE in progress\");\n    _addLiquidity();\n  }\n\n  function _addLiquidity() internal {\n    require(msg.value >= minEth, '!minEth');\n    uint256 fee = msg.value.mul(fundPctLiq).div(FUND_BASE);\n    fundFee = fundFee.add(fee);\n    uint256 contrib = msg.value.sub(fee, '!fee');\n    ethContributed[msg.sender] += contrib;\n    require(ethContributed[msg.sender] <= maxEth);\n    totalETHContributed = totalETHContributed.add(contrib);\n    require(totalETHContributed <= cap, '!cap');\n    uint256 amount = contrib * tokenPerEth;\n    if (amount > 0) {\n      ITOKEN.safeTransferFrom(fund, address(this), amount);\n    }\n    emit LiquidityAdded(msg.sender, msg.value);\n  }\n\n  function claimLPTokens() public {\n    require(LPGenerationCompleted, \"!LP generated\");\n    uint256 airdrop = registeredAirdrop[msg.sender]; //gas\n    registeredAirdrop[msg.sender] = 0;\n    uint256 contributed = ethContributed[msg.sender]; // gas\n    ethContributed[msg.sender] = 0;\n    require(contributed > 0 , \"Nothing to claim, move along\");\n    uint256 fee = airdrop.mul(fundPctLiq).div(FUND_BASE);\n    if (contributed >= airdrop - fee) {\n      confirmedAirdrop[msg.sender] = contributed;\n    }\n    uint256 amountLPToTransfer = contributed.mul(LPperETHUnit).div(PRECISION);\n    IPAIR.transfer(msg.sender, amountLPToTransfer);\n    emit LPTokenClaimed(msg.sender, amountLPToTransfer);\n  }\n\n}\n",
  "sourcePath": "/run/media/bill/Rekoner-0/protocols/multiswap-contracts/contracts/LGE.sol",
  "compiler": {
    "name": "solc",
    "version": "0.6.12+commit.27d51765.Emscripten.clang"
  },
  "schemaVersion": "3.2.3",
  "updatedAt": "2021-02-20T04:40:24.194Z",
  "devdoc": {
    "kind": "dev",
    "methods": {
      "owner()": {
        "details": "Returns the address of the current owner."
      },
      "renounceOwnership()": {
        "details": "Leaves the contract without owner. It will not be possible to call `onlyOwner` functions anymore. Can only be called by the current owner. NOTE: Renouncing ownership will leave the contract without an owner, thereby removing any functionality that is only available to the owner."
      },
      "transferOwnership(address)": {
        "details": "Transfers ownership of the contract to a new account (`newOwner`). Can only be called by the current owner."
      }
    },
    "version": 1
  },
  "userdoc": {
    "kind": "user",
    "methods": {},
    "version": 1
  }
}