{
  "contractName": "MultiSwapLGE",
  "abi": [
    {
      "inputs": [
        {
          "internalType": "address",
          "name": "multi",
          "type": "address"
        },
        {
          "internalType": "address",
          "name": "owner",
          "type": "address"
        },
        {
          "internalType": "address",
          "name": "_fund",
          "type": "address"
        }
      ],
      "stateMutability": "nonpayable",
      "type": "constructor"
    },
    {
      "anonymous": false,
      "inputs": [
        {
          "indexed": false,
          "internalType": "address",
          "name": "dst",
          "type": "address"
        },
        {
          "indexed": false,
          "internalType": "uint256",
          "name": "value",
          "type": "uint256"
        }
      ],
      "name": "LPTokenClaimed",
      "type": "event"
    },
    {
      "anonymous": false,
      "inputs": [
        {
          "indexed": true,
          "internalType": "address",
          "name": "dst",
          "type": "address"
        },
        {
          "indexed": false,
          "internalType": "uint256",
          "name": "value",
          "type": "uint256"
        }
      ],
      "name": "LiquidityAdded",
      "type": "event"
    },
    {
      "anonymous": false,
      "inputs": [
        {
          "indexed": true,
          "internalType": "address",
          "name": "previousOwner",
          "type": "address"
        },
        {
          "indexed": true,
          "internalType": "address",
          "name": "newOwner",
          "type": "address"
        }
      ],
      "name": "OwnershipTransferred",
      "type": "event"
    },
    {
      "inputs": [],
      "name": "IPAIR",
      "outputs": [
        {
          "internalType": "contract IUniswapV2Pair",
          "name": "",
          "type": "address"
        }
      ],
      "stateMutability": "view",
      "type": "function"
    },
    {
      "inputs": [],
      "name": "LGEFinished",
      "outputs": [
        {
          "internalType": "bool",
          "name": "",
          "type": "bool"
        }
      ],
      "stateMutability": "view",
      "type": "function"
    },
    {
      "inputs": [],
      "name": "LPGenerationCompleted",
      "outputs": [
        {
          "internalType": "bool",
          "name": "",
          "type": "bool"
        }
      ],
      "stateMutability": "view",
      "type": "function"
    },
    {
      "inputs": [],
      "name": "LPperETHUnit",
      "outputs": [
        {
          "internalType": "uint256",
          "name": "",
          "type": "uint256"
        }
      ],
      "stateMutability": "view",
      "type": "function"
    },
    {
      "inputs": [],
      "name": "contractStartTimestamp",
      "outputs": [
        {
          "internalType": "uint256",
          "name": "",
          "type": "uint256"
        }
      ],
      "stateMutability": "view",
      "type": "function"
    },
    {
      "inputs": [
        {
          "internalType": "address",
          "name": "",
          "type": "address"
        }
      ],
      "name": "ethContributed",
      "outputs": [
        {
          "internalType": "uint256",
          "name": "",
          "type": "uint256"
        }
      ],
      "stateMutability": "view",
      "type": "function"
    },
    {
      "inputs": [],
      "name": "fund",
      "outputs": [
        {
          "internalType": "address",
          "name": "",
          "type": "address"
        }
      ],
      "stateMutability": "view",
      "type": "function"
    },
    {
      "inputs": [],
      "name": "fundFee",
      "outputs": [
        {
          "internalType": "uint256",
          "name": "",
          "type": "uint256"
        }
      ],
      "stateMutability": "view",
      "type": "function"
    },
    {
      "inputs": [],
      "name": "fundPctLiq",
      "outputs": [
        {
          "internalType": "uint256",
          "name": "",
          "type": "uint256"
        }
      ],
      "stateMutability": "view",
      "type": "function"
    },
    {
      "inputs": [],
      "name": "lgeLength",
      "outputs": [
        {
          "internalType": "uint256",
          "name": "",
          "type": "uint256"
        }
      ],
      "stateMutability": "view",
      "type": "function"
    },
    {
      "inputs": [],
      "name": "multiPerEth",
      "outputs": [
        {
          "internalType": "uint256",
          "name": "",
          "type": "uint256"
        }
      ],
      "stateMutability": "view",
      "type": "function"
    },
    {
      "inputs": [],
      "name": "owner",
      "outputs": [
        {
          "internalType": "address",
          "name": "",
          "type": "address"
        }
      ],
      "stateMutability": "view",
      "type": "function"
    },
    {
      "inputs": [],
      "name": "renounceOwnership",
      "outputs": [],
      "stateMutability": "nonpayable",
      "type": "function"
    },
    {
      "inputs": [],
      "name": "totalETHContributed",
      "outputs": [
        {
          "internalType": "uint256",
          "name": "",
          "type": "uint256"
        }
      ],
      "stateMutability": "view",
      "type": "function"
    },
    {
      "inputs": [],
      "name": "totalLPTokensMinted",
      "outputs": [
        {
          "internalType": "uint256",
          "name": "",
          "type": "uint256"
        }
      ],
      "stateMutability": "view",
      "type": "function"
    },
    {
      "inputs": [
        {
          "internalType": "address",
          "name": "newOwner",
          "type": "address"
        }
      ],
      "name": "transferOwnership",
      "outputs": [],
      "stateMutability": "nonpayable",
      "type": "function"
    },
    {
      "stateMutability": "payable",
      "type": "receive"
    },
    {
      "inputs": [
        {
          "internalType": "uint256",
          "name": "_minEth",
          "type": "uint256"
        }
      ],
      "name": "setMinEth",
      "outputs": [],
      "stateMutability": "nonpayable",
      "type": "function"
    },
    {
      "inputs": [
        {
          "internalType": "uint256",
          "name": "_maxEth",
          "type": "uint256"
        }
      ],
      "name": "setMaxEth",
      "outputs": [],
      "stateMutability": "nonpayable",
      "type": "function"
    },
    {
      "inputs": [
        {
          "internalType": "uint256",
          "name": "_cap",
          "type": "uint256"
        }
      ],
      "name": "setCap",
      "outputs": [],
      "stateMutability": "nonpayable",
      "type": "function"
    },
    {
      "inputs": [
        {
          "internalType": "uint256",
          "name": "_fundPctLiq",
          "type": "uint256"
        }
      ],
      "name": "setFundPctLiq",
      "outputs": [],
      "stateMutability": "nonpayable",
      "type": "function"
    },
    {
      "inputs": [
        {
          "internalType": "uint256",
          "name": "_multiPerEth",
          "type": "uint256"
        }
      ],
      "name": "setMultiPerEth",
      "outputs": [],
      "stateMutability": "nonpayable",
      "type": "function"
    },
    {
      "inputs": [
        {
          "internalType": "uint256",
          "name": "_lgeLength",
          "type": "uint256"
        }
      ],
      "name": "setLGELength",
      "outputs": [],
      "stateMutability": "nonpayable",
      "type": "function"
    },
    {
      "inputs": [],
      "name": "startLGE",
      "outputs": [],
      "stateMutability": "nonpayable",
      "type": "function"
    },
    {
      "inputs": [],
      "name": "setLGEFinished",
      "outputs": [],
      "stateMutability": "nonpayable",
      "type": "function"
    },
    {
      "inputs": [],
      "name": "lgeInProgress",
      "outputs": [
        {
          "internalType": "bool",
          "name": "",
          "type": "bool"
        }
      ],
      "stateMutability": "view",
      "type": "function"
    },
    {
      "inputs": [
        {
          "internalType": "address",
          "name": "to",
          "type": "address"
        }
      ],
      "name": "emergencyRescueEth",
      "outputs": [],
      "stateMutability": "nonpayable",
      "type": "function"
    },
    {
      "inputs": [],
      "name": "generateLPTokens",
      "outputs": [],
      "stateMutability": "nonpayable",
      "type": "function"
    },
    {
      "inputs": [],
      "name": "addLiquidity",
      "outputs": [],
      "stateMutability": "payable",
      "type": "function"
    },
    {
      "inputs": [],
      "name": "claimLPTokens",
      "outputs": [],
      "stateMutability": "nonpayable",
      "type": "function"
    }
  ],
  "bytecode": "0x60806040526107d06003556706f05b59d3b2000060095568056bc75e2d63100000600a55683635c9adc5dea00000600b55610bb8600c5562093a80600d553480156200004a57600080fd5b506040516200202838038062002028833981810160405260608110156200007057600080fd5b5080516020820151604092830151600080546001600160a01b0319166001600160a01b0384169081178255945193949293919284929091907f8be0079c531659141344cd1fd0a4f28419497f9722a3daafe3b4186f6b6457e0908290a350600180546001600160a01b038084166001600160a01b031992831617909255600680548216735c69bee701ef814a2b6a3edd4b1652cb9cc5aa6f179055600780548216737a250d5630b4cf539739df2c5dacb4c659f2488d179081905560058054878516931692909217909155604080516315ab88c960e31b81529051600093929092169163ad5c464891600480820192602092909190829003018186803b1580156200017a57600080fd5b505afa1580156200018f573d6000803e3d6000fd5b505050506040513d6020811015620001a657600080fd5b5051600480546001600160a01b0319166001600160a01b0380841691821783556006546040805163e6a4390560e01b8152948501939093528882166024850152915193945060009391169163e6a43905916044808301926020929190829003018186803b1580156200021757600080fd5b505afa1580156200022c573d6000803e3d6000fd5b505050506040513d60208110156200024357600080fd5b505190506001600160a01b03811615620002a4576040805162461bcd60e51b815260206004820152601360248201527f70616972206d757374206e6f7420657869737400000000000000000000000000604482015290519081900360640190fd5b600654604080516364e329cb60e11b81526001600160a01b03858116600483015288811660248301529151919092169163c9c653969160448083019260209291908290030181600087803b158015620002fc57600080fd5b505af115801562000311573d6000803e3d6000fd5b505050506040513d60208110156200032857600080fd5b5051600880546001600160a01b039092166001600160a01b03199092169190911790555050505050611cc880620003606000396000f3fe6080604052600436106101c55760003560e01c80636a2f796c116100f7578063b60d428811610095578063e8078d9411610064578063e8078d94146104fb578063ec7d2fc214610503578063f2fde38b1461052d578063f96f5b351461056057610220565b8063b60d428814610492578063b73caac8146104a7578063beaf7d6a146104d1578063c033e262146104e657610220565b806384d82c58116100d157806384d82c5814610414578063854d9ed91461043e5780638da5cb5b14610468578063af4c3fd51461047d57610220565b80636a2f796c146103d5578063715018a6146103ea57806383fab405146103ff57610220565b8063233994341161016457806338af66321161013e57806338af66321461035757806342226e021461036c57806347786d37146103965780635f7bf7b9146103c057610220565b8063233994341461031857806331a22a201461032d57806333abd0281461034257610220565b8063183bb894116101a0578063183bb8941461028a578063183c758b146102bb5780631ef28bc1146102ee578063201e49fc1461030357610220565b80622b1329146102255780630cc312c31461024c57806314b8fecc1461026157610220565b36610220576101d2610593565b610216576040805162461bcd60e51b815260206004820152601060248201526f214c474520696e2070726f677265737360801b604482015290519081900360640190fd5b61021e6105d7565b005b600080fd5b34801561023157600080fd5b5061023a610756565b60408051918252519081900360200190f35b34801561025857600080fd5b5061021e61075c565b34801561026d57600080fd5b506102766107c3565b604080519115158252519081900360200190f35b34801561029657600080fd5b5061029f6107cc565b604080516001600160a01b039092168252519081900360200190f35b3480156102c757600080fd5b5061021e600480360360208110156102de57600080fd5b50356001600160a01b03166107db565b3480156102fa57600080fd5b5061021e610989565b34801561030f57600080fd5b5061021e6109e7565b34801561032457600080fd5b5061023a610f28565b34801561033957600080fd5b5061023a610f2e565b34801561034e57600080fd5b5061023a610f34565b34801561036357600080fd5b5061021e610f3a565b34801561037857600080fd5b5061021e6004803603602081101561038f57600080fd5b50356110de565b3480156103a257600080fd5b5061021e600480360360208110156103b957600080fd5b5035611165565b3480156103cc57600080fd5b5061023a6111ee565b3480156103e157600080fd5b5061023a6111f4565b3480156103f657600080fd5b5061021e6111fa565b34801561040b57600080fd5b5061027661129c565b34801561042057600080fd5b5061021e6004803603602081101561043757600080fd5b50356112a5565b34801561044a57600080fd5b5061021e6004803603602081101561046157600080fd5b5035611327565b34801561047457600080fd5b5061029f6113ad565b34801561048957600080fd5b50610276610593565b34801561049e57600080fd5b5061029f6113bc565b3480156104b357600080fd5b5061021e600480360360208110156104ca57600080fd5b50356113cb565b3480156104dd57600080fd5b5061023a61147b565b3480156104f257600080fd5b5061023a611481565b61021e611487565b34801561050f57600080fd5b5061021e6004803603602081101561052657600080fd5b50356114dd565b34801561053957600080fd5b5061021e6004803603602081101561055057600080fd5b50356001600160a01b031661157f565b34801561056c57600080fd5b5061023a6004803603602081101561058357600080fd5b50356001600160a01b0316611677565b600061059d611689565b15806105ab5750600f5460ff165b156105b8575060006105d4565b426105d0600d54600e5461169190919063ffffffff16565b1190505b90565b600954341015610618576040805162461bcd60e51b8152602060048201526007602482015266042dad2dc8ae8d60cb1b604482015290519081900360640190fd5b600061063b612710610635600354346116f490919063ffffffff16565b9061174d565b60025490915061064b9082611691565b6002556040805180820190915260048152632166656560e01b6020820152600090610679903490849061178f565b3360009081526014602052604090208054820190819055600a5491925011156106a157600080fd5b6012546106ae9082611691565b6012819055600b5410156106f2576040805162461bcd60e51b815260206004808301919091526024820152630216361760e41b604482015290519081900360640190fd5b600c548102801561071b5760015460055461071b916001600160a01b039182169116308461182b565b60408051348152905133917fc17cea59c2955cb181b03393209566960365771dbba9dc3d510180e7cb312088919081900360200190a2505050565b60115481565b61076461188b565b6000546001600160a01b039081169116146107b4576040805162461bcd60e51b81526020600482018190526024820152600080516020611c49833981519152604482015290519081900360640190fd5b600f805460ff19166001179055565b60135460ff1681565b6008546001600160a01b031681565b6107e361188b565b6000546001600160a01b03908116911614610833576040805162461bcd60e51b81526020600482018190526024820152600080516020611c49833981519152604482015290519081900360640190fd5b6001600160a01b038116610874576040805162461bcd60e51b815260206004820152600360248201526221746f60e81b604482015290519081900360640190fd5b6108986202a300610892600d54600e5461169190919063ffffffff16565b90611691565b4210156108ec576040805162461bcd60e51b815260206004820152601f60248201527f6d7573742062652032206461797320616674657220656e64206f66206c676500604482015290519081900360640190fd5b6040516000906001600160a01b0383169047908381818185875af1925050503d8060008114610937576040519150601f19603f3d011682016040523d82523d6000602084013e61093c565b606091505b5050905080610985576040805162461bcd60e51b815260206004820152601060248201526f2a3930b739b332b9103330b4b632b21760811b604482015290519081900360640190fd5b5050565b61099161188b565b6000546001600160a01b039081169116146109e1576040805162461bcd60e51b81526020600482018190526024820152600080516020611c49833981519152604482015290519081900360640190fd5b42600e55565b6109ef610593565b15610a39576040805162461bcd60e51b81526020600482015260156024820152744c4745207374696c6c20696e2070726f677265737360581b604482015290519081900360640190fd5b60135460ff1615610a91576040805162461bcd60e51b815260206004820152601b60248201527f4c5020746f6b656e7320616c72656164792067656e6572617465640000000000604482015290519081900360640190fd5b6012546004805460408051630d0e30db60e41b815290516001600160a01b039092169263d0e30db0928592808301926000929182900301818588803b158015610ad957600080fd5b505af1158015610aed573d6000803e3d6000fd5b505060048054604080516370a0823160e01b81523093810193909352518695506001600160a01b0390911693506370a0823192506024808301926020929190829003018186803b158015610b4057600080fd5b505afa158015610b54573d6000803e3d6000fd5b505050506040513d6020811015610b6a57600080fd5b505114610ba6576040805162461bcd60e51b8152602060048201526005602482015264042eecae8d60db1b604482015290519081900360640190fd5b600480546008546040805163a9059cbb60e01b81526001600160a01b0392831694810194909452602484018590525191169163a9059cbb9160448083019260209291908290030181600087803b158015610bff57600080fd5b505af1158015610c13573d6000803e3d6000fd5b505050506040513d6020811015610c2957600080fd5b5050600554604080516370a0823160e01b815230600482015290516000926001600160a01b0316916370a08231916024808301926020929190829003018186803b158015610c7657600080fd5b505afa158015610c8a573d6000803e3d6000fd5b505050506040513d6020811015610ca057600080fd5b5051600854600554919250610cc2916001600160a01b0390811691168361188f565b600854604080516335313c2160e11b815230600482015290516001600160a01b0390921691636a627842916024808201926020929091908290030181600087803b158015610d0f57600080fd5b505af1158015610d23573d6000803e3d6000fd5b505050506040513d6020811015610d3957600080fd5b5050600854604080516370a0823160e01b815230600482015290516001600160a01b03909216916370a0823191602480820192602092909190829003018186803b158015610d8657600080fd5b505afa158015610d9a573d6000803e3d6000fd5b505050506040513d6020811015610db057600080fd5b50516011819055610dfd576040805162461bcd60e51b815260206004820152601260248201527113140818dc99585d1a5bdb8819985a5b195960721b604482015290519081900360640190fd5b6001546001600160a01b031615610eab576001546040516000916001600160a01b03169047908381818185875af1925050503d8060008114610e5b576040519150601f19603f3d011682016040523d82523d6000602084013e610e60565b606091505b5050905080610ea9576040805162461bcd60e51b815260206004820152601060248201526f2a3930b739b332b9103330b4b632b21760811b604482015290519081900360640190fd5b505b610ecc82610635670de0b6b3a76400006011546116f490919063ffffffff16565b6010819055610f17576040805162461bcd60e51b815260206004820152601260248201527113140818dc99585d1a5bdb8819985a5b195960721b604482015290519081900360640190fd5b50506013805460ff19166001179055565b60125481565b60105481565b60025481565b60135460ff16610f81576040805162461bcd60e51b815260206004820152600d60248201526c0853140819d95b995c985d1959609a1b604482015290519081900360640190fd5b33600090815260146020526040902054610fe2576040805162461bcd60e51b815260206004820152601c60248201527f4e6f7468696e6720746f20636c61696d2c206d6f766520616c6f6e6700000000604482015290519081900360640190fd5b60105433600090815260146020526040812054909161100f91670de0b6b3a76400009161063591906116f4565b336000818152601460209081526040808320839055600854815163a9059cbb60e01b815260048101959095526024850186905290519495506001600160a01b03169363a9059cbb93604480820194918390030190829087803b15801561107457600080fd5b505af1158015611088573d6000803e3d6000fd5b505050506040513d602081101561109e57600080fd5b5050604080513381526020810183905281517f586e28f4f60b4d906fc69694ea6d7fe5c5668730ce3286d7af8eca868f3c2760929181900390910190a150565b6110e661188b565b6000546001600160a01b03908116911614611136576040805162461bcd60e51b81526020600482018190526024820152600080516020611c49833981519152604482015290519081900360640190fd5b678ac7230489e8000081101580156111575750686c6b935b8bbd4000008111155b61116057600080fd5b600a55565b61116d61188b565b6000546001600160a01b039081169116146111bd576040805162461bcd60e51b81526020600482018190526024820152600080516020611c49833981519152604482015290519081900360640190fd5b681b1ae4d6e2ef50000081101580156111e05750690a968163f0a57b4000008111155b6111e957600080fd5b600b55565b600c5481565b600e5481565b61120261188b565b6000546001600160a01b03908116911614611252576040805162461bcd60e51b81526020600482018190526024820152600080516020611c49833981519152604482015290519081900360640190fd5b600080546040516001600160a01b03909116907f8be0079c531659141344cd1fd0a4f28419497f9722a3daafe3b4186f6b6457e0908390a3600080546001600160a01b0319169055565b600f5460ff1681565b6112ad61188b565b6000546001600160a01b039081169116146112fd576040805162461bcd60e51b81526020600482018190526024820152600080516020611c49833981519152604482015290519081900360640190fd5b80158061131957506103e8811015801561131957506113888111155b61132257600080fd5b600355565b61132f61188b565b6000546001600160a01b0390811691161461137f576040805162461bcd60e51b81526020600482018190526024820152600080516020611c49833981519152604482015290519081900360640190fd5b67016345785d8a0000811015801561139f5750671bc16d674ec800008111155b6113a857600080fd5b600955565b6000546001600160a01b031690565b6001546001600160a01b031681565b6113d361188b565b6000546001600160a01b03908116911614611423576040805162461bcd60e51b81526020600482018190526024820152600080516020611c49833981519152604482015290519081900360640190fd5b611c2081101580156114385750621275008111155b611476576040805162461bcd60e51b815260206004820152600a602482015269042d8ceca98cadccee8d60b31b604482015290519081900360640190fd5b600d55565b600d5481565b60035481565b61148f610593565b6114d3576040805162461bcd60e51b815260206004820152601060248201526f214c474520696e2070726f677265737360801b604482015290519081900360640190fd5b6114db6105d7565b565b6114e561188b565b6000546001600160a01b03908116911614611535576040805162461bcd60e51b81526020600482018190526024820152600080516020611c49833981519152604482015290519081900360640190fd5b600181101561157a576040805162461bcd60e51b815260206004820152600c60248201526b042daead8e8d2a0cae48ae8d60a31b604482015290519081900360640190fd5b600c55565b61158761188b565b6000546001600160a01b039081169116146115d7576040805162461bcd60e51b81526020600482018190526024820152600080516020611c49833981519152604482015290519081900360640190fd5b6001600160a01b03811661161c5760405162461bcd60e51b8152600401808060200182810382526026815260200180611bdc6026913960400191505060405180910390fd5b600080546040516001600160a01b03808516939216917f8be0079c531659141344cd1fd0a4f28419497f9722a3daafe3b4186f6b6457e091a3600080546001600160a01b0319166001600160a01b0392909216919091179055565b60146020526000908152604090205481565b600e54151590565b6000828201838110156116eb576040805162461bcd60e51b815260206004820152601b60248201527f536166654d6174683a206164646974696f6e206f766572666c6f770000000000604482015290519081900360640190fd5b90505b92915050565b600082611703575060006116ee565b8282028284828161171057fe5b04146116eb5760405162461bcd60e51b8152600401808060200182810382526021815260200180611c286021913960400191505060405180910390fd5b60006116eb83836040518060400160405280601a81526020017f536166654d6174683a206469766973696f6e206279207a65726f0000000000008152506118e6565b6000818484111561181e5760405162461bcd60e51b81526004018080602001828103825283818151815260200191508051906020019080838360005b838110156117e35781810151838201526020016117cb565b50505050905090810190601f1680156118105780820380516001836020036101000a031916815260200191505b509250505060405180910390fd5b50508183035b9392505050565b604080516001600160a01b0380861660248301528416604482015260648082018490528251808303909101815260849091019091526020810180516001600160e01b03166323b872dd60e01b17905261188590859061194b565b50505050565b3390565b604080516001600160a01b038416602482015260448082018490528251808303909101815260649091019091526020810180516001600160e01b031663a9059cbb60e01b1790526118e190849061194b565b505050565b600081836119355760405162461bcd60e51b81526020600482018181528351602484015283519092839260449091019190850190808383600083156117e35781810151838201526020016117cb565b50600083858161194157fe5b0495945050505050565b60606119a0826040518060400160405280602081526020017f5361666545524332303a206c6f772d6c6576656c2063616c6c206661696c6564815250856001600160a01b03166119fc9092919063ffffffff16565b8051909150156118e1578080602001905160208110156119bf57600080fd5b50516118e15760405162461bcd60e51b815260040180806020018281038252602a815260200180611c69602a913960400191505060405180910390fd5b6060611a0b8484600085611a13565b949350505050565b606082471015611a545760405162461bcd60e51b8152600401808060200182810382526026815260200180611c026026913960400191505060405180910390fd5b611a5d85611b6f565b611aae576040805162461bcd60e51b815260206004820152601d60248201527f416464726573733a2063616c6c20746f206e6f6e2d636f6e7472616374000000604482015290519081900360640190fd5b60006060866001600160a01b031685876040518082805190602001908083835b60208310611aed5780518252601f199092019160209182019101611ace565b6001836020036101000a03801982511681845116808217855250505050505090500191505060006040518083038185875af1925050503d8060008114611b4f576040519150601f19603f3d011682016040523d82523d6000602084013e611b54565b606091505b5091509150611b64828286611b75565b979650505050505050565b3b151590565b60608315611b84575081611824565b825115611b945782518084602001fd5b60405162461bcd60e51b81526020600482018181528451602484015284518593919283926044019190850190808383600083156117e35781810151838201526020016117cb56fe4f776e61626c653a206e6577206f776e657220697320746865207a65726f2061646472657373416464726573733a20696e73756666696369656e742062616c616e636520666f722063616c6c536166654d6174683a206d756c7469706c69636174696f6e206f766572666c6f774f776e61626c653a2063616c6c6572206973206e6f7420746865206f776e65725361666545524332303a204552433230206f7065726174696f6e20646964206e6f742073756363656564a264697066735822122061b73258091c2170f4b343d020c9d5c428472feea36328de46db42e14e868f6264736f6c634300060c0033",
  "immutableReferences": {},
  "source": "// SPDX-License-Identifier: Apache-2.0\npragma solidity >=0.6.12;\nimport \"@openzeppelin/contracts/utils/Address.sol\";\nimport \"@openzeppelin/contracts/token/ERC20/IERC20.sol\";\nimport \"@openzeppelin/contracts/token/ERC20/SafeERC20.sol\";\nimport \"./Ownable.sol\";\nimport \"./utils/Console.sol\";\nimport \"./interfaces/IWETH.sol\";\nimport \"./interfaces/IUniswapV2Pair.sol\";\nimport \"./interfaces/IUniswapV2Factory.sol\";\nimport \"./interfaces/IUniswapV2Router02.sol\";\n\ncontract MultiSwapLGE is Ownable {\n  using SafeMath for uint256;\n  using Address for address;\n  using SafeERC20 for IERC20;\n\n  event LPTokenClaimed(address dst, uint value);\n  event LiquidityAdded(address indexed dst, uint value);\n\n  address public fund;\n  uint256 public fundFee;\n  uint256 public fundPctLiq = 2000;\n  uint256 constant FUND_BASE = 10000;\n\n  uint256 constant MIN_FUND_PCT = 1000;\n  uint256 constant MAX_FUND_PCT = 5000;\n  uint256 constant MIN_LGE_LENGTH = 2 hours;\n  uint256 constant MAX_LGE_LENGTH = 14 days;\n  uint256 constant MIN_MULTI_PER_ETH = 1;\n  uint256 constant MIN_MIN_ETH = 1 ether / 10;\n  uint256 constant MAX_MIN_ETH = 2 ether;\n  uint256 constant MIN_MAX_ETH = 10 ether;\n  uint256 constant MAX_MAX_ETH = 2000 ether;\n  uint256 constant MIN_CAP = 500 ether;\n  uint256 constant MAX_CAP = 50_000 ether;\n  uint256 constant PRECISION = 1e18;\n\n  IWETH Iweth;\n  IERC20 IMULTI;\n  IUniswapV2Factory uniswapFactory;\n  IUniswapV2Router02 uniswapRouterV2;\n\n  IUniswapV2Pair public IPAIR;\n  uint256 minEth = 1 ether / 2;\n  uint256 maxEth = 100 ether;\n  uint256 cap = 1000 ether;\n  uint256 public multiPerEth = 3000;\n  uint256 public lgeLength = 7 days;\n  uint256 public contractStartTimestamp;\n  bool public LGEFinished;\n  uint256 public LPperETHUnit;\n  uint256 public totalLPTokensMinted;\n  uint256 public totalETHContributed;\n  bool public LPGenerationCompleted;\n  mapping (address => uint)  public ethContributed;\n\n  constructor(address multi, address owner, address _fund) public Ownable(owner) {\n    fund = _fund;\n    uniswapFactory = IUniswapV2Factory(0x5C69bEe701ef814a2B6a3EDD4B1652CB9cc5aA6f);\n    uniswapRouterV2 = IUniswapV2Router02(0x7a250d5630B4cF539739dF2C5dAcb4c659F2488D);\n\n    IMULTI = IERC20(multi);\n    address WETH = uniswapRouterV2.WETH();\n    Iweth = IWETH(WETH);\n    address _pair = uniswapFactory.getPair(WETH, multi);\n    require(_pair == address(0), 'pair must not exist');\n    IPAIR = IUniswapV2Pair(uniswapFactory.createPair(WETH, multi));\n  }\n\n  function setMinEth(uint256 _minEth) onlyOwner external {\n    require(_minEth >= MIN_MIN_ETH && _minEth <= MAX_MIN_ETH);\n    minEth = _minEth;\n  }\n\n  function setMaxEth(uint256 _maxEth) onlyOwner external {\n    require(_maxEth >= MIN_MAX_ETH && _maxEth <= MAX_MAX_ETH);\n    maxEth = _maxEth;\n  }\n\n  function setCap(uint256 _cap) onlyOwner external {\n    require(_cap >= MIN_CAP && _cap <= MAX_CAP);\n    cap = _cap;\n  }\n\n  function setFundPctLiq(uint256 _fundPctLiq) onlyOwner external {\n    require(_fundPctLiq == 0 || (_fundPctLiq >= MIN_FUND_PCT && _fundPctLiq <= MAX_FUND_PCT));\n    fundPctLiq = _fundPctLiq;\n  }\n\n  function setMultiPerEth(uint256 _multiPerEth) onlyOwner external {\n    require(_multiPerEth >= MIN_MULTI_PER_ETH, '!multiPerEth');\n    multiPerEth = _multiPerEth;\n  }\n\n  function setLGELength(uint256 _lgeLength) onlyOwner external {\n    require(_lgeLength >= MIN_LGE_LENGTH && _lgeLength <= MAX_LGE_LENGTH, '!lgeLength');\n    lgeLength = _lgeLength;\n  }\n\n  function startLGE() onlyOwner external {\n    contractStartTimestamp = block.timestamp;\n  }\n\n  function _LGEStarted() internal view returns (bool) {\n    return contractStartTimestamp != 0;\n  }\n\n  function setLGEFinished() public onlyOwner {\n    LGEFinished = true;\n  }\n\n  function lgeInProgress() public view returns (bool) {\n    if (!_LGEStarted() || LGEFinished) {\n        return false;\n    }\n    return contractStartTimestamp.add(lgeLength) > block.timestamp;\n  }\n\n  function emergencyRescueEth(address to) onlyOwner external {\n    require(to != address(0), '!to');\n    require(block.timestamp >= contractStartTimestamp.add(lgeLength).add(2 days), 'must be 2 days after end of lge');\n    (bool success, ) = to.call.value(address(this).balance)(\"\");\n    require(success, \"Transfer failed.\");\n  }\n\n  function generateLPTokens() public {\n    require(lgeInProgress() == false, \"LGE still in progress\");\n    require(LPGenerationCompleted == false, \"LP tokens already generated\");\n    uint256 total = totalETHContributed; // gas\n\n    //Wrap eth\n    Iweth.deposit{ value: total }();\n    require(IERC20(address(Iweth)).balanceOf(address(this)) == total, '!weth');\n    Iweth.transfer(address(IPAIR), total);\n\n    uint256 multiBalance = IMULTI.balanceOf(address(this));\n    IMULTI.safeTransfer(address(IPAIR), multiBalance);\n    IPAIR.mint(address(this));\n    totalLPTokensMinted = IPAIR.balanceOf(address(this));\n    require(totalLPTokensMinted != 0 , \"LP creation failed\");\n    if (fund != address(0)) {\n      // send remaining ETH to fund\n      (bool success, ) = fund.call.value(address(this).balance)(\"\");\n      require(success, \"Transfer failed.\");\n    }\n    // Calculate LP tokens per eth\n    LPperETHUnit = totalLPTokensMinted.mul(PRECISION).div(total);\n    require(LPperETHUnit != 0 , \"LP creation failed\");\n    LPGenerationCompleted = true;\n  }\n\n  receive() external payable {\n    require(lgeInProgress(), \"!LGE in progress\");\n    _addLiquidity();\n  }\n\n  function addLiquidity() public payable {\n    require(lgeInProgress(), \"!LGE in progress\");\n    _addLiquidity();\n  }\n\n  function _addLiquidity() internal {\n    require(msg.value >= minEth, '!minEth');\n    uint256 fee = msg.value.mul(fundPctLiq).div(FUND_BASE);\n    fundFee = fundFee.add(fee);\n    uint256 contrib = msg.value.sub(fee, '!fee');\n    ethContributed[msg.sender] += contrib;\n    require(ethContributed[msg.sender] <= maxEth);\n    totalETHContributed = totalETHContributed.add(contrib);\n    require(totalETHContributed <= cap, '!cap');\n    uint256 amount = contrib * multiPerEth;\n    if (amount > 0) {\n      IMULTI.safeTransferFrom(fund, address(this), amount);\n    }\n    emit LiquidityAdded(msg.sender, msg.value);\n  }\n\n  function claimLPTokens() public {\n    require(LPGenerationCompleted, \"!LP generated\");\n    require(ethContributed[msg.sender] > 0 , \"Nothing to claim, move along\");\n    uint256 amountLPToTransfer = ethContributed[msg.sender].mul(LPperETHUnit).div(PRECISION);\n    ethContributed[msg.sender] = 0;\n    IPAIR.transfer(msg.sender, amountLPToTransfer);\n    emit LPTokenClaimed(msg.sender, amountLPToTransfer);\n  }\n\n}\n",
  "sourcePath": "/run/media/bill/Rekoner-0/protocols/multiswap-contracts/contracts/MultiSwapLGE.sol",
  "compiler": {
    "name": "solc",
    "version": "0.6.12+commit.27d51765.Emscripten.clang"
  },
  "schemaVersion": "3.2.3",
  "updatedAt": "2021-02-14T23:45:39.435Z",
  "devdoc": {
    "kind": "dev",
    "methods": {
      "owner()": {
        "details": "Returns the address of the current owner."
      },
      "renounceOwnership()": {
        "details": "Leaves the contract without owner. It will not be possible to call `onlyOwner` functions anymore. Can only be called by the current owner. NOTE: Renouncing ownership will leave the contract without an owner, thereby removing any functionality that is only available to the owner."
      },
      "transferOwnership(address)": {
        "details": "Transfers ownership of the contract to a new account (`newOwner`). Can only be called by the current owner."
      }
    },
    "version": 1
  },
  "userdoc": {
    "kind": "user",
    "methods": {},
    "version": 1
  }
}