{
  "contractName": "MultiSwapVesting",
  "abi": [
    {
      "inputs": [
        {
          "internalType": "address",
          "name": "_token",
          "type": "address"
        },
        {
          "internalType": "address",
          "name": "owner",
          "type": "address"
        }
      ],
      "stateMutability": "nonpayable",
      "type": "constructor"
    },
    {
      "anonymous": false,
      "inputs": [
        {
          "indexed": true,
          "internalType": "address",
          "name": "recipient",
          "type": "address"
        },
        {
          "indexed": false,
          "internalType": "uint256",
          "name": "vestingId",
          "type": "uint256"
        }
      ],
      "name": "GrantAdded",
      "type": "event"
    },
    {
      "anonymous": false,
      "inputs": [
        {
          "indexed": true,
          "internalType": "address",
          "name": "recipient",
          "type": "address"
        },
        {
          "indexed": false,
          "internalType": "uint256",
          "name": "amountClaimed",
          "type": "uint256"
        }
      ],
      "name": "GrantTokensClaimed",
      "type": "event"
    },
    {
      "anonymous": false,
      "inputs": [
        {
          "indexed": true,
          "internalType": "address",
          "name": "previousOwner",
          "type": "address"
        },
        {
          "indexed": true,
          "internalType": "address",
          "name": "newOwner",
          "type": "address"
        }
      ],
      "name": "OwnershipTransferred",
      "type": "event"
    },
    {
      "inputs": [],
      "name": "owner",
      "outputs": [
        {
          "internalType": "address",
          "name": "",
          "type": "address"
        }
      ],
      "stateMutability": "view",
      "type": "function",
      "constant": true
    },
    {
      "inputs": [],
      "name": "renounceOwnership",
      "outputs": [],
      "stateMutability": "nonpayable",
      "type": "function"
    },
    {
      "inputs": [],
      "name": "token",
      "outputs": [
        {
          "internalType": "contract IERC20",
          "name": "",
          "type": "address"
        }
      ],
      "stateMutability": "view",
      "type": "function",
      "constant": true
    },
    {
      "inputs": [
        {
          "internalType": "uint256",
          "name": "",
          "type": "uint256"
        }
      ],
      "name": "tokenGrants",
      "outputs": [
        {
          "internalType": "uint256",
          "name": "startTime",
          "type": "uint256"
        },
        {
          "internalType": "uint256",
          "name": "amount",
          "type": "uint256"
        },
        {
          "internalType": "uint16",
          "name": "vestingDuration",
          "type": "uint16"
        },
        {
          "internalType": "uint16",
          "name": "vestingCliff",
          "type": "uint16"
        },
        {
          "internalType": "uint16",
          "name": "daysClaimed",
          "type": "uint16"
        },
        {
          "internalType": "uint256",
          "name": "totalClaimed",
          "type": "uint256"
        },
        {
          "internalType": "address",
          "name": "recipient",
          "type": "address"
        }
      ],
      "stateMutability": "view",
      "type": "function",
      "constant": true
    },
    {
      "inputs": [],
      "name": "totalVestingCount",
      "outputs": [
        {
          "internalType": "uint256",
          "name": "",
          "type": "uint256"
        }
      ],
      "stateMutability": "view",
      "type": "function",
      "constant": true
    },
    {
      "inputs": [
        {
          "internalType": "address",
          "name": "newOwner",
          "type": "address"
        }
      ],
      "name": "transferOwnership",
      "outputs": [],
      "stateMutability": "nonpayable",
      "type": "function"
    },
    {
      "inputs": [
        {
          "internalType": "address",
          "name": "_recipient",
          "type": "address"
        },
        {
          "internalType": "uint256",
          "name": "_startTime",
          "type": "uint256"
        },
        {
          "internalType": "uint256",
          "name": "_amount",
          "type": "uint256"
        },
        {
          "internalType": "address",
          "name": "_from",
          "type": "address"
        },
        {
          "internalType": "uint16",
          "name": "_vestingDurationInDays",
          "type": "uint16"
        },
        {
          "internalType": "uint16",
          "name": "_vestingCliffInDays",
          "type": "uint16"
        }
      ],
      "name": "addTokenGrant",
      "outputs": [],
      "stateMutability": "nonpayable",
      "type": "function"
    },
    {
      "inputs": [
        {
          "internalType": "address",
          "name": "_recipient",
          "type": "address"
        }
      ],
      "name": "getActiveGrants",
      "outputs": [
        {
          "internalType": "uint256[]",
          "name": "",
          "type": "uint256[]"
        }
      ],
      "stateMutability": "view",
      "type": "function",
      "constant": true
    },
    {
      "inputs": [
        {
          "internalType": "uint256",
          "name": "_grantId",
          "type": "uint256"
        }
      ],
      "name": "calculateGrantClaim",
      "outputs": [
        {
          "internalType": "uint16",
          "name": "",
          "type": "uint16"
        },
        {
          "internalType": "uint256",
          "name": "",
          "type": "uint256"
        }
      ],
      "stateMutability": "view",
      "type": "function",
      "constant": true
    },
    {
      "inputs": [
        {
          "internalType": "uint256",
          "name": "_grantId",
          "type": "uint256"
        }
      ],
      "name": "claimVestedTokens",
      "outputs": [],
      "stateMutability": "nonpayable",
      "type": "function"
    },
    {
      "inputs": [
        {
          "internalType": "uint256",
          "name": "_grantId",
          "type": "uint256"
        }
      ],
      "name": "tokensVestedPerDay",
      "outputs": [
        {
          "internalType": "uint256",
          "name": "",
          "type": "uint256"
        }
      ],
      "stateMutability": "view",
      "type": "function",
      "constant": true
    }
  ],
  "bytecode": "0x608060405234801561001057600080fd5b506040516113b53803806113b58339818101604052604081101561003357600080fd5b508051602090910151600080546001600160a01b0319166001600160a01b03831690811782556040518392907f8be0079c531659141344cd1fd0a4f28419497f9722a3daafe3b4186f6b6457e0908290a3506001600160a01b03821661009857600080fd5b50600180546001600160a01b0319166001600160a01b03929092169190911790556112ed806100c86000396000f3fe608060405234801561001057600080fd5b50600436106100a95760003560e01c80638bf1ad4c116100715780638bf1ad4c146101c45780638da5cb5b1461023a57806399d508c01461025e578063f09dafb214610278578063f2fde38b14610295578063fc0c546a146102bb576100a9565b806332b1c5b7146100ae578063337276fa146100e95780636fc559bb14610139578063715018a61461019f5780637935510b146101a7575b600080fd5b6100cb600480360360208110156100c457600080fd5b50356102c3565b6040805161ffff909316835260208301919091528051918290030190f35b610137600480360360c08110156100ff57600080fd5b506001600160a01b03813581169160208101359160408201359160608101359091169061ffff608082013581169160a0013516610451565b005b6101566004803603602081101561014f57600080fd5b50356107fd565b60408051978852602088019690965261ffff9485168787015292841660608701529216608085015260a08401919091526001600160a01b031660c0830152519081900360e00190f35b610137610851565b610137600480360360208110156101bd57600080fd5b5035610905565b6101ea600480360360208110156101da57600080fd5b50356001600160a01b0316610a2b565b60408051602080825283518183015283519192839290830191858101910280838360005b8381101561022657818101518382015260200161020e565b505050509050019250505060405180910390f35b610242610a97565b604080516001600160a01b039092168252519081900360200190f35b610266610aa6565b60408051918252519081900360200190f35b6102666004803603602081101561028e57600080fd5b5035610aac565b610137600480360360208110156102ab57600080fd5b50356001600160a01b0316610b40565b610242610c4a565b600081815260036020526040812060048101548291906001600160a01b03163314806102fe5750336102f3610a97565b6001600160a01b0316145b61033c576040805162461bcd60e51b815260206004820152600a602482015269085c9958da5c1a595b9d60b21b604482015290519081900360640190fd5b8054610346610c59565b101561035957600080925092505061044c565b6000610371826000015461036b610c59565b90610c5d565b905060006103828262015180610ca8565b600284015490915062010000900461ffff168110156103a95793506000925061044c915050565b600283015461ffff1681106103ed5760006103d584600301548560010154610c5d90919063ffffffff16565b60029094015461ffff16955092935061044c92505050565b600283015460009061040c908390640100000000900461ffff16610c5d565b600285015460018601549192506000916104299161ffff16610ca8565b9050600061043b61ffff841683610cea565b92975091955061044c945050505050565b915091565b610459610d43565b6000546001600160a01b039081169116146104bb576040805162461bcd60e51b815260206004820181905260248201527f4f776e61626c653a2063616c6c6572206973206e6f7420746865206f776e6572604482015290519081900360640190fd5b610e428161ffff16111561050b576040805162461bcd60e51b81526020600482015260126024820152716d6f7265207468616e20313020796561727360701b604482015290519081900360640190fd5b6123a58261ffff16111561055b576040805162461bcd60e51b81526020600482015260126024820152716d6f7265207468616e20323520796561727360701b604482015290519081900360640190fd5b8061ffff168261ffff1610156105ab576040805162461bcd60e51b815260206004820152601060248201526f223ab930ba34b7b7101e1021b634b33360811b604482015290519081900360640190fd5b60006105bb8561ffff8516610ca8565b90506000811161060b576040805162461bcd60e51b81526020600482015260166024820152750616d6f756e74566573746564506572446179203e20360541b604482015290519081900360640190fd5b600154610623906001600160a01b0316853088610d47565b61062b6111e4565b6040518060e0016040528088600014610644578861064c565b61064c610c59565b81526020018781526020018561ffff1681526020018461ffff168152602001600061ffff16815260200160008152602001896001600160a01b0316815250905080600360006002548152602001908152602001600020600082015181600001556020820151816001015560408201518160020160006101000a81548161ffff021916908361ffff16021790555060608201518160020160026101000a81548161ffff021916908361ffff16021790555060808201518160020160046101000a81548161ffff021916908361ffff16021790555060a0820151816003015560c08201518160040160006101000a8154816001600160a01b0302191690836001600160a01b0316021790555090505060046000896001600160a01b03166001600160a01b031681526020019081526020016000206002549080600181540180825580915050600190039060005260206000200160009091909190915055876001600160a01b03167f9d2a1eab91557a277ec725fe26546609d5a33a550c3f3476982ee177252be8f46002546040518082815260200191505060405180910390a25050600280546001019055505050505050565b6003602081905260009182526040909120805460018201546002830154938301546004909301549193909261ffff80831693620100008404821693640100000000900490911691906001600160a01b031687565b610859610d43565b6000546001600160a01b039081169116146108bb576040805162461bcd60e51b815260206004820181905260248201527f4f776e61626c653a2063616c6c6572206973206e6f7420746865206f776e6572604482015290519081900360640190fd5b600080546040516001600160a01b03909116907f8be0079c531659141344cd1fd0a4f28419497f9722a3daafe3b4186f6b6457e0908390a3600080546001600160a01b0319169055565b600080610911836102c3565b90925090508061095c576040805162461bcd60e51b81526020600482015260116024820152700616d6f756e74566573746564206973203607c1b604482015290519081900360640190fd5b6000838152600360205260409020600281015461098990640100000000900461ffff908116908516610da7565b60028201805461ffff929092166401000000000265ffff000000001990921691909117905560038101546109bd9083610da7565b600382015560048101546001546109e1916001600160a01b03918216911684610e01565b60048101546040805184815290516001600160a01b03909216917fc6cbb4aa8681b18644bf64921eea8f2b9f44cbd58d64fc07a110bfccc20382969181900360200190a250505050565b6001600160a01b038116600090815260046020908152604091829020805483518184028101840190945280845260609392830182828015610a8b57602002820191906000526020600020905b815481526020019060010190808311610a77575b50505050509050919050565b6000546001600160a01b031690565b60025481565b600081815260036020526040812060048101546001600160a01b0316331480610ae4575033610ad9610a97565b6001600160a01b0316145b610b22576040805162461bcd60e51b815260206004820152600a602482015269085c9958da5c1a595b9d60b21b604482015290519081900360640190fd5b60028101546001820154610b399161ffff16610ca8565b9392505050565b610b48610d43565b6000546001600160a01b03908116911614610baa576040805162461bcd60e51b815260206004820181905260248201527f4f776e61626c653a2063616c6c6572206973206e6f7420746865206f776e6572604482015290519081900360640190fd5b6001600160a01b038116610bef5760405162461bcd60e51b81526004018080602001828103825260268152602001806112216026913960400191505060405180910390fd5b600080546040516001600160a01b03808516939216917f8be0079c531659141344cd1fd0a4f28419497f9722a3daafe3b4186f6b6457e091a3600080546001600160a01b0319166001600160a01b0392909216919091179055565b6001546001600160a01b031681565b4290565b6000610c9f83836040518060400160405280601e81526020017f536166654d6174683a207375627472616374696f6e206f766572666c6f770000815250610e58565b90505b92915050565b6000610c9f83836040518060400160405280601a81526020017f536166654d6174683a206469766973696f6e206279207a65726f000000000000815250610eef565b600082610cf957506000610ca2565b82820282848281610d0657fe5b0414610c9f5760405162461bcd60e51b815260040180806020018281038252602181526020018061126d6021913960400191505060405180910390fd5b3390565b604080516001600160a01b0380861660248301528416604482015260648082018490528251808303909101815260849091019091526020810180516001600160e01b03166323b872dd60e01b179052610da1908590610f54565b50505050565b600082820183811015610c9f576040805162461bcd60e51b815260206004820152601b60248201527f536166654d6174683a206164646974696f6e206f766572666c6f770000000000604482015290519081900360640190fd5b604080516001600160a01b038416602482015260448082018490528251808303909101815260649091019091526020810180516001600160e01b031663a9059cbb60e01b179052610e53908490610f54565b505050565b60008184841115610ee75760405162461bcd60e51b81526004018080602001828103825283818151815260200191508051906020019080838360005b83811015610eac578181015183820152602001610e94565b50505050905090810190601f168015610ed95780820380516001836020036101000a031916815260200191505b509250505060405180910390fd5b505050900390565b60008183610f3e5760405162461bcd60e51b8152602060048201818152835160248401528351909283926044909101919085019080838360008315610eac578181015183820152602001610e94565b506000838581610f4a57fe5b0495945050505050565b6060610fa9826040518060400160405280602081526020017f5361666545524332303a206c6f772d6c6576656c2063616c6c206661696c6564815250856001600160a01b03166110059092919063ffffffff16565b805190915015610e5357808060200190516020811015610fc857600080fd5b5051610e535760405162461bcd60e51b815260040180806020018281038252602a81526020018061128e602a913960400191505060405180910390fd5b6060611014848460008561101c565b949350505050565b60608247101561105d5760405162461bcd60e51b81526004018080602001828103825260268152602001806112476026913960400191505060405180910390fd5b61106685611178565b6110b7576040805162461bcd60e51b815260206004820152601d60248201527f416464726573733a2063616c6c20746f206e6f6e2d636f6e7472616374000000604482015290519081900360640190fd5b60006060866001600160a01b031685876040518082805190602001908083835b602083106110f65780518252601f1990920191602091820191016110d7565b6001836020036101000a03801982511681845116808217855250505050505090500191505060006040518083038185875af1925050503d8060008114611158576040519150601f19603f3d011682016040523d82523d6000602084013e61115d565b606091505b509150915061116d82828661117e565b979650505050505050565b3b151590565b6060831561118d575081610b39565b82511561119d5782518084602001fd5b60405162461bcd60e51b8152602060048201818152845160248401528451859391928392604401919085019080838360008315610eac578181015183820152602001610e94565b6040805160e081018252600080825260208201819052918101829052606081018290526080810182905260a0810182905260c08101919091529056fe4f776e61626c653a206e6577206f776e657220697320746865207a65726f2061646472657373416464726573733a20696e73756666696369656e742062616c616e636520666f722063616c6c536166654d6174683a206d756c7469706c69636174696f6e206f766572666c6f775361666545524332303a204552433230206f7065726174696f6e20646964206e6f742073756363656564a2646970667358221220801772c9b6855301839af19eefde3c558ded0b3717b824f738a3eef3f1cdb41864736f6c634300060c0033",
  "immutableReferences": {},
  "source": "// SPDX-License-Identifier: MIT\npragma solidity >=0.6.12;\nimport \"@openzeppelin/contracts/token/ERC20/IERC20.sol\";\nimport \"@openzeppelin/contracts/token/ERC20/SafeERC20.sol\";\nimport \"@openzeppelin/contracts/math/SafeMath.sol\";\nimport \"./Ownable.sol\";\nimport \"./utils/Console.sol\";\n\ncontract MultiSwapVesting is Ownable {\n  using SafeMath for uint256;\n  using SafeMath for uint16;\n  using SafeERC20 for IERC20;\n  event GrantAdded(address indexed recipient, uint256 vestingId);\n  event GrantTokensClaimed(address indexed recipient, uint256 amountClaimed);\n\n  struct Grant {\n    uint256 startTime;\n    uint256 amount;\n    uint16 vestingDuration;\n    uint16 vestingCliff;\n    uint16 daysClaimed;\n    uint256 totalClaimed;\n    address recipient;\n  }\n\n  IERC20 public token;\n  uint256 public totalVestingCount;\n  mapping (uint256 => Grant) public tokenGrants;\n  mapping (address => uint[]) private activeGrants;\n  uint256 constant internal SECONDS_PER_DAY = 86400;\n\n  constructor(address _token, address owner) public Ownable(owner) {\n    require(address(_token) != address(0));\n    token = IERC20(_token);\n  }\n  \n  function addTokenGrant(\n    address _recipient,\n    uint256 _startTime,\n    uint256 _amount,\n    address _from,\n    uint16 _vestingDurationInDays,\n    uint16 _vestingCliffInDays    \n  ) \n    external\n    onlyOwner\n  {\n    require(_vestingCliffInDays <= 10*365, \"more than 10 years\");\n    require(_vestingDurationInDays <= 25*365, \"more than 25 years\");\n    require(_vestingDurationInDays >= _vestingCliffInDays, \"Duration < Cliff\");    \n    uint256 amountVestedPerDay = _amount.div(_vestingDurationInDays);\n    require(amountVestedPerDay > 0, \"amountVestedPerDay > 0\");\n\n    // Transfer the grant tokens under the control of the vesting contract\n    token.safeTransferFrom(_from, address(this), _amount);\n\n    Grant memory grant = Grant({\n      startTime: _startTime == 0 ? currentTime() : _startTime,\n      amount: _amount,\n      vestingDuration: _vestingDurationInDays,\n      vestingCliff: _vestingCliffInDays,\n      daysClaimed: 0,\n      totalClaimed: 0,\n      recipient: _recipient\n    });\n    tokenGrants[totalVestingCount] = grant;\n    activeGrants[_recipient].push(totalVestingCount);\n    emit GrantAdded(_recipient, totalVestingCount);\n    totalVestingCount++;\n  }\n\n  function getActiveGrants(address _recipient) public view returns(uint256[] memory){\n    return activeGrants[_recipient];\n  }\n\n  /// @notice Calculate the vested and unclaimed days and tokens available for `_grantId` to claim\n  /// Due to rounding errors once grant duration is reached, returns the entire left grant amount\n  /// Returns (0, 0) if cliff has not been reached\n  function calculateGrantClaim(uint256 _grantId) public view returns (uint16, uint256) {\n    Grant storage tokenGrant = tokenGrants[_grantId];\n    require(tokenGrant.recipient == msg.sender || owner() == msg.sender, '!recipient');\n\n    // For grants created with a future start date, that hasn't been reached, return 0, 0\n    if (currentTime() < tokenGrant.startTime) {\n      return (0, 0);\n    }\n\n    // Check cliff was reached\n    uint elapsedTime = currentTime().sub(tokenGrant.startTime);\n    uint elapsedDays = elapsedTime.div(SECONDS_PER_DAY);\n    if (elapsedDays < tokenGrant.vestingCliff) {\n      return (uint16(elapsedDays), 0);\n    }\n\n    // If over vesting duration, all tokens vested\n    if (elapsedDays >= tokenGrant.vestingDuration) {\n      uint256 remainingGrant = tokenGrant.amount.sub(tokenGrant.totalClaimed);\n      return (tokenGrant.vestingDuration, remainingGrant);\n    } else {\n      uint16 daysVested = uint16(elapsedDays.sub(tokenGrant.daysClaimed));\n      uint256 amountVestedPerDay = tokenGrant.amount.div(uint256(tokenGrant.vestingDuration));\n      uint256 amountVested = uint256(daysVested.mul(amountVestedPerDay));\n      return (daysVested, amountVested);\n    }\n  }\n\n  /// @notice Allows a grant recipient to claim their vested tokens. Errors if no tokens have vested\n  /// It is advised recipients check they are entitled to claim via `calculateGrantClaim` before calling this\n  function claimVestedTokens(uint256 _grantId) external {\n    uint16 daysVested;\n    uint256 amountVested;\n    (daysVested, amountVested) = calculateGrantClaim(_grantId);\n    require(amountVested > 0, \"amountVested is 0\");\n\n    Grant storage tokenGrant = tokenGrants[_grantId];\n    tokenGrant.daysClaimed = uint16(tokenGrant.daysClaimed.add(daysVested));\n    tokenGrant.totalClaimed = uint256(tokenGrant.totalClaimed.add(amountVested));\n    token.safeTransfer(tokenGrant.recipient, amountVested);\n    emit GrantTokensClaimed(tokenGrant.recipient, amountVested);\n  }\n\n  function currentTime() private view returns(uint256) {\n    return block.timestamp;\n  }\n\n  function tokensVestedPerDay(uint256 _grantId) public view returns(uint256) {\n    Grant storage tokenGrant = tokenGrants[_grantId];\n    require(tokenGrant.recipient == msg.sender || owner() == msg.sender, '!recipient');\n    return tokenGrant.amount.div(uint256(tokenGrant.vestingDuration));\n  }\n\n  /// @notice Terminate token grant transferring all vested tokens to the `_grantId`\n  /// and returning all non-vested tokens to the V12 MultiSig\n  /// @param _grantId grantId of the token grant recipient\n  // function removeTokenGrant(uint256 _grantId) \n  //     external \n  //     onlyOwner\n  // {\n  //     Grant storage tokenGrant = tokenGrants[_grantId];\n  //     address recipient = tokenGrant.recipient;\n  //     uint16 daysVested;\n  //     uint256 amountVested;\n  //     (daysVested, amountVested) = calculateGrantClaim(_grantId);\n\n  //     uint256 amountNotVested = tokenGrant.amount.sub(tokenGrant.totalClaimed);\n\n  //     require(token.transfer(v12MultiSig, amountNotVested));\n\n  //     tokenGrant.startTime = 0;\n  //     tokenGrant.amount = 0;\n  //     tokenGrant.vestingDuration = 0;\n  //     tokenGrant.vestingCliff = 0;\n  //     tokenGrant.daysClaimed = 0;\n  //     tokenGrant.totalClaimed = 0;\n  //     tokenGrant.recipient = address(0);\n\n  //     emit GrantRemoved(recipient, amountVested, amountNotVested);\n  // }\n\n}",
  "sourcePath": "/run/media/bill/Rekoner-0/protocols/multiswap-contracts/contracts/MultiSwapVesting.sol",
  "compiler": {
    "name": "solc",
    "version": "0.6.12+commit.27d51765.Emscripten.clang"
  },
  "schemaVersion": "3.2.3",
  "updatedAt": "2021-02-13T23:09:45.155Z",
  "networkType": "ethereum",
  "devdoc": {
    "kind": "dev",
    "methods": {
      "owner()": {
        "details": "Returns the address of the current owner."
      },
      "renounceOwnership()": {
        "details": "Leaves the contract without owner. It will not be possible to call `onlyOwner` functions anymore. Can only be called by the current owner. NOTE: Renouncing ownership will leave the contract without an owner, thereby removing any functionality that is only available to the owner."
      },
      "transferOwnership(address)": {
        "details": "Transfers ownership of the contract to a new account (`newOwner`). Can only be called by the current owner."
      }
    },
    "version": 1
  },
  "userdoc": {
    "kind": "user",
    "methods": {
      "calculateGrantClaim(uint256)": {
        "notice": "Calculate the vested and unclaimed days and tokens available for `_grantId` to claim Due to rounding errors once grant duration is reached, returns the entire left grant amount Returns (0, 0) if cliff has not been reached"
      },
      "claimVestedTokens(uint256)": {
        "notice": "Allows a grant recipient to claim their vested tokens. Errors if no tokens have vested It is advised recipients check they are entitled to claim via `calculateGrantClaim` before calling this"
      }
    },
    "version": 1
  }
}