{
  "contractName": "MultiSwapLGE",
  "abi": [
    {
      "inputs": [
        {
          "internalType": "address",
          "name": "multi",
          "type": "address"
        },
        {
          "internalType": "address",
          "name": "owner",
          "type": "address"
        },
        {
          "internalType": "address",
          "name": "_fund",
          "type": "address"
        }
      ],
      "stateMutability": "nonpayable",
      "type": "constructor"
    },
    {
      "anonymous": false,
      "inputs": [
        {
          "indexed": false,
          "internalType": "address",
          "name": "dst",
          "type": "address"
        },
        {
          "indexed": false,
          "internalType": "uint256",
          "name": "value",
          "type": "uint256"
        }
      ],
      "name": "LPTokenClaimed",
      "type": "event"
    },
    {
      "anonymous": false,
      "inputs": [
        {
          "indexed": true,
          "internalType": "address",
          "name": "dst",
          "type": "address"
        },
        {
          "indexed": false,
          "internalType": "uint256",
          "name": "value",
          "type": "uint256"
        }
      ],
      "name": "LiquidityAdded",
      "type": "event"
    },
    {
      "anonymous": false,
      "inputs": [
        {
          "indexed": true,
          "internalType": "address",
          "name": "previousOwner",
          "type": "address"
        },
        {
          "indexed": true,
          "internalType": "address",
          "name": "newOwner",
          "type": "address"
        }
      ],
      "name": "OwnershipTransferred",
      "type": "event"
    },
    {
      "inputs": [],
      "name": "IPAIR",
      "outputs": [
        {
          "internalType": "contract IUniswapV2Pair",
          "name": "",
          "type": "address"
        }
      ],
      "stateMutability": "view",
      "type": "function"
    },
    {
      "inputs": [],
      "name": "LGEFinished",
      "outputs": [
        {
          "internalType": "bool",
          "name": "",
          "type": "bool"
        }
      ],
      "stateMutability": "view",
      "type": "function"
    },
    {
      "inputs": [],
      "name": "LPGenerationCompleted",
      "outputs": [
        {
          "internalType": "bool",
          "name": "",
          "type": "bool"
        }
      ],
      "stateMutability": "view",
      "type": "function"
    },
    {
      "inputs": [],
      "name": "LPperETHUnit",
      "outputs": [
        {
          "internalType": "uint256",
          "name": "",
          "type": "uint256"
        }
      ],
      "stateMutability": "view",
      "type": "function"
    },
    {
      "inputs": [],
      "name": "airdropTotal",
      "outputs": [
        {
          "internalType": "uint256",
          "name": "",
          "type": "uint256"
        }
      ],
      "stateMutability": "view",
      "type": "function"
    },
    {
      "inputs": [
        {
          "internalType": "address",
          "name": "",
          "type": "address"
        }
      ],
      "name": "confirmedAirdrop",
      "outputs": [
        {
          "internalType": "uint256",
          "name": "",
          "type": "uint256"
        }
      ],
      "stateMutability": "view",
      "type": "function"
    },
    {
      "inputs": [],
      "name": "contractStartTimestamp",
      "outputs": [
        {
          "internalType": "uint256",
          "name": "",
          "type": "uint256"
        }
      ],
      "stateMutability": "view",
      "type": "function"
    },
    {
      "inputs": [
        {
          "internalType": "address",
          "name": "",
          "type": "address"
        }
      ],
      "name": "ethContributed",
      "outputs": [
        {
          "internalType": "uint256",
          "name": "",
          "type": "uint256"
        }
      ],
      "stateMutability": "view",
      "type": "function"
    },
    {
      "inputs": [],
      "name": "fund",
      "outputs": [
        {
          "internalType": "address",
          "name": "",
          "type": "address"
        }
      ],
      "stateMutability": "view",
      "type": "function"
    },
    {
      "inputs": [],
      "name": "fundFee",
      "outputs": [
        {
          "internalType": "uint256",
          "name": "",
          "type": "uint256"
        }
      ],
      "stateMutability": "view",
      "type": "function"
    },
    {
      "inputs": [],
      "name": "fundPctLiq",
      "outputs": [
        {
          "internalType": "uint256",
          "name": "",
          "type": "uint256"
        }
      ],
      "stateMutability": "view",
      "type": "function"
    },
    {
      "inputs": [],
      "name": "lgeLength",
      "outputs": [
        {
          "internalType": "uint256",
          "name": "",
          "type": "uint256"
        }
      ],
      "stateMutability": "view",
      "type": "function"
    },
    {
      "inputs": [],
      "name": "multiPerEth",
      "outputs": [
        {
          "internalType": "uint256",
          "name": "",
          "type": "uint256"
        }
      ],
      "stateMutability": "view",
      "type": "function"
    },
    {
      "inputs": [],
      "name": "owner",
      "outputs": [
        {
          "internalType": "address",
          "name": "",
          "type": "address"
        }
      ],
      "stateMutability": "view",
      "type": "function"
    },
    {
      "inputs": [
        {
          "internalType": "address",
          "name": "",
          "type": "address"
        }
      ],
      "name": "registeredAirdrop",
      "outputs": [
        {
          "internalType": "uint256",
          "name": "",
          "type": "uint256"
        }
      ],
      "stateMutability": "view",
      "type": "function"
    },
    {
      "inputs": [],
      "name": "renounceOwnership",
      "outputs": [],
      "stateMutability": "nonpayable",
      "type": "function"
    },
    {
      "inputs": [],
      "name": "totalETHContributed",
      "outputs": [
        {
          "internalType": "uint256",
          "name": "",
          "type": "uint256"
        }
      ],
      "stateMutability": "view",
      "type": "function"
    },
    {
      "inputs": [],
      "name": "totalLPTokensMinted",
      "outputs": [
        {
          "internalType": "uint256",
          "name": "",
          "type": "uint256"
        }
      ],
      "stateMutability": "view",
      "type": "function"
    },
    {
      "inputs": [
        {
          "internalType": "address",
          "name": "newOwner",
          "type": "address"
        }
      ],
      "name": "transferOwnership",
      "outputs": [],
      "stateMutability": "nonpayable",
      "type": "function"
    },
    {
      "stateMutability": "payable",
      "type": "receive"
    },
    {
      "inputs": [
        {
          "internalType": "uint256",
          "name": "total",
          "type": "uint256"
        }
      ],
      "name": "registerAirdrop",
      "outputs": [],
      "stateMutability": "nonpayable",
      "type": "function"
    },
    {
      "inputs": [
        {
          "internalType": "uint256",
          "name": "_minEth",
          "type": "uint256"
        }
      ],
      "name": "setMinEth",
      "outputs": [],
      "stateMutability": "nonpayable",
      "type": "function"
    },
    {
      "inputs": [
        {
          "internalType": "uint256",
          "name": "_maxEth",
          "type": "uint256"
        }
      ],
      "name": "setMaxEth",
      "outputs": [],
      "stateMutability": "nonpayable",
      "type": "function"
    },
    {
      "inputs": [
        {
          "internalType": "uint256",
          "name": "_cap",
          "type": "uint256"
        }
      ],
      "name": "setCap",
      "outputs": [],
      "stateMutability": "nonpayable",
      "type": "function"
    },
    {
      "inputs": [
        {
          "internalType": "uint256",
          "name": "_fundPctLiq",
          "type": "uint256"
        }
      ],
      "name": "setFundPctLiq",
      "outputs": [],
      "stateMutability": "nonpayable",
      "type": "function"
    },
    {
      "inputs": [
        {
          "internalType": "uint256",
          "name": "_multiPerEth",
          "type": "uint256"
        }
      ],
      "name": "setMultiPerEth",
      "outputs": [],
      "stateMutability": "nonpayable",
      "type": "function"
    },
    {
      "inputs": [
        {
          "internalType": "uint256",
          "name": "_lgeLength",
          "type": "uint256"
        }
      ],
      "name": "setLGELength",
      "outputs": [],
      "stateMutability": "nonpayable",
      "type": "function"
    },
    {
      "inputs": [],
      "name": "startLGE",
      "outputs": [],
      "stateMutability": "nonpayable",
      "type": "function"
    },
    {
      "inputs": [],
      "name": "setLGEFinished",
      "outputs": [],
      "stateMutability": "nonpayable",
      "type": "function"
    },
    {
      "inputs": [],
      "name": "lgeInProgress",
      "outputs": [
        {
          "internalType": "bool",
          "name": "",
          "type": "bool"
        }
      ],
      "stateMutability": "view",
      "type": "function"
    },
    {
      "inputs": [
        {
          "internalType": "address",
          "name": "to",
          "type": "address"
        }
      ],
      "name": "emergencyRescueEth",
      "outputs": [],
      "stateMutability": "nonpayable",
      "type": "function"
    },
    {
      "inputs": [],
      "name": "generateLPTokens",
      "outputs": [],
      "stateMutability": "nonpayable",
      "type": "function"
    },
    {
      "inputs": [],
      "name": "addLiquidity",
      "outputs": [],
      "stateMutability": "payable",
      "type": "function"
    },
    {
      "inputs": [],
      "name": "claimLPTokens",
      "outputs": [],
      "stateMutability": "nonpayable",
      "type": "function"
    }
  ],
  "bytecode": "0x60806040526107d06003556706f05b59d3b20000600c5568056bc75e2d63100000600d55683635c9adc5dea00000600e55610bb8600f5562093a806010553480156200004a57600080fd5b506040516200215d3803806200215d833981810160405260608110156200007057600080fd5b5080516020820151604092830151600080546001600160a01b0319166001600160a01b0384169081178255945193949293919284929091907f8be0079c531659141344cd1fd0a4f28419497f9722a3daafe3b4186f6b6457e0908290a350600180546001600160a01b038084166001600160a01b031992831617909255600680548216735c69bee701ef814a2b6a3edd4b1652cb9cc5aa6f179055600780548216737a250d5630b4cf539739df2c5dacb4c659f2488d179081905560058054878516931692909217909155604080516315ab88c960e31b81529051600093929092169163ad5c464891600480820192602092909190829003018186803b1580156200017a57600080fd5b505afa1580156200018f573d6000803e3d6000fd5b505050506040513d6020811015620001a657600080fd5b5051600480546001600160a01b0319166001600160a01b0380841691821783556006546040805163e6a4390560e01b8152948501939093528882166024850152915193945060009391169163e6a43905916044808301926020929190829003018186803b1580156200021757600080fd5b505afa1580156200022c573d6000803e3d6000fd5b505050506040513d60208110156200024357600080fd5b505190506001600160a01b03811615620002a4576040805162461bcd60e51b815260206004820152601360248201527f70616972206d757374206e6f7420657869737400000000000000000000000000604482015290519081900360640190fd5b600654604080516364e329cb60e11b81526001600160a01b03858116600483015288811660248301529151919092169163c9c653969160448083019260209291908290030181600087803b158015620002fc57600080fd5b505af115801562000311573d6000803e3d6000fd5b505050506040513d60208110156200032857600080fd5b5051600b80546001600160a01b039092166001600160a01b03199092169190911790555050505050611dfd80620003606000396000f3fe6080604052600436106101f15760003560e01c80635f7bf7b91161010d578063b60d4288116100a0578063c8b7fd841161006f578063c8b7fd8414610599578063e8078d94146105cc578063ec7d2fc2146105d4578063f2fde38b146105fe578063f96f5b35146106315761024c565b8063b60d428814610530578063b73caac814610545578063beaf7d6a1461056f578063c033e262146105845761024c565b806384d82c58116100dc57806384d82c58146104b2578063854d9ed9146104dc5780638da5cb5b14610506578063af4c3fd51461051b5761024c565b80635f7bf7b91461045e5780636a2f796c14610473578063715018a61461048857806383fab4051461049d5761024c565b8063233994341161018557806338af66321161015457806338af6632146103c257806342226e02146103d757806347786d37146104015780635551d5381461042b5761024c565b8063233994341461036e57806331a22a201461038357806333abd02814610398578063354bd1fc146103ad5761024c565b8063183bb894116101c1578063183bb894146102e0578063183c758b146103115780631ef28bc114610344578063201e49fc146103595761024c565b80622b1329146102515780630cc312c31461027857806314ab11a71461028d57806314b8fecc146102b75761024c565b3661024c576101fe610664565b610242576040805162461bcd60e51b815260206004820152601060248201526f214c474520696e2070726f677265737360801b604482015290519081900360640190fd5b61024a6106a8565b005b600080fd5b34801561025d57600080fd5b50610266610827565b60408051918252519081900360200190f35b34801561028457600080fd5b5061024a61082d565b34801561029957600080fd5b5061024a600480360360208110156102b057600080fd5b5035610894565b3480156102c357600080fd5b506102cc6108b4565b604080519115158252519081900360200190f35b3480156102ec57600080fd5b506102f56108bd565b604080516001600160a01b039092168252519081900360200190f35b34801561031d57600080fd5b5061024a6004803603602081101561033457600080fd5b50356001600160a01b03166108cc565b34801561035057600080fd5b5061024a610a7a565b34801561036557600080fd5b5061024a610ad8565b34801561037a57600080fd5b50610266611019565b34801561038f57600080fd5b5061026661101f565b3480156103a457600080fd5b50610266611025565b3480156103b957600080fd5b5061026661102b565b3480156103ce57600080fd5b5061024a611031565b3480156103e357600080fd5b5061024a600480360360208110156103fa57600080fd5b50356111ef565b34801561040d57600080fd5b5061024a6004803603602081101561042457600080fd5b5035611276565b34801561043757600080fd5b506102666004803603602081101561044e57600080fd5b50356001600160a01b03166112ff565b34801561046a57600080fd5b50610266611311565b34801561047f57600080fd5b50610266611317565b34801561049457600080fd5b5061024a61131d565b3480156104a957600080fd5b506102cc6113bf565b3480156104be57600080fd5b5061024a600480360360208110156104d557600080fd5b50356113c8565b3480156104e857600080fd5b5061024a600480360360208110156104ff57600080fd5b503561144a565b34801561051257600080fd5b506102f56114d0565b34801561052757600080fd5b506102cc610664565b34801561053c57600080fd5b506102f56114df565b34801561055157600080fd5b5061024a6004803603602081101561056857600080fd5b50356114ee565b34801561057b57600080fd5b5061026661159e565b34801561059057600080fd5b506102666115a4565b3480156105a557600080fd5b50610266600480360360208110156105bc57600080fd5b50356001600160a01b03166115aa565b61024a6115bc565b3480156105e057600080fd5b5061024a600480360360208110156105f757600080fd5b5035611612565b34801561060a57600080fd5b5061024a6004803603602081101561062157600080fd5b50356001600160a01b03166116b4565b34801561063d57600080fd5b506102666004803603602081101561065457600080fd5b50356001600160a01b03166117ac565b600061066e6117be565b158061067c575060125460ff165b15610689575060006106a5565b426106a16010546011546117c690919063ffffffff16565b1190505b90565b600c543410156106e9576040805162461bcd60e51b8152602060048201526007602482015266042dad2dc8ae8d60cb1b604482015290519081900360640190fd5b600061070c6127106107066003543461182990919063ffffffff16565b90611882565b60025490915061071c90826117c6565b6002556040805180820190915260048152632166656560e01b602082015260009061074a90349084906118c4565b3360009081526017602052604090208054820190819055600d54919250111561077257600080fd5b60155461077f90826117c6565b6015819055600e5410156107c3576040805162461bcd60e51b815260206004808301919091526024820152630216361760e41b604482015290519081900360640190fd5b600f54810280156107ec576001546005546107ec916001600160a01b0391821691163084611960565b60408051348152905133917fc17cea59c2955cb181b03393209566960365771dbba9dc3d510180e7cb312088919081900360200190a2505050565b60145481565b6108356119c0565b6000546001600160a01b03908116911614610885576040805162461bcd60e51b81526020600482018190526024820152600080516020611d7e833981519152604482015290519081900360640190fd5b6012805460ff19166001179055565b600880548201905533600090815260096020526040902080549091019055565b60165460ff1681565b600b546001600160a01b031681565b6108d46119c0565b6000546001600160a01b03908116911614610924576040805162461bcd60e51b81526020600482018190526024820152600080516020611d7e833981519152604482015290519081900360640190fd5b6001600160a01b038116610965576040805162461bcd60e51b815260206004820152600360248201526221746f60e81b604482015290519081900360640190fd5b6109896202a3006109836010546011546117c690919063ffffffff16565b906117c6565b4210156109dd576040805162461bcd60e51b815260206004820152601f60248201527f6d7573742062652032206461797320616674657220656e64206f66206c676500604482015290519081900360640190fd5b6040516000906001600160a01b0383169047908381818185875af1925050503d8060008114610a28576040519150601f19603f3d011682016040523d82523d6000602084013e610a2d565b606091505b5050905080610a76576040805162461bcd60e51b815260206004820152601060248201526f2a3930b739b332b9103330b4b632b21760811b604482015290519081900360640190fd5b5050565b610a826119c0565b6000546001600160a01b03908116911614610ad2576040805162461bcd60e51b81526020600482018190526024820152600080516020611d7e833981519152604482015290519081900360640190fd5b42601155565b610ae0610664565b15610b2a576040805162461bcd60e51b81526020600482015260156024820152744c4745207374696c6c20696e2070726f677265737360581b604482015290519081900360640190fd5b60165460ff1615610b82576040805162461bcd60e51b815260206004820152601b60248201527f4c5020746f6b656e7320616c72656164792067656e6572617465640000000000604482015290519081900360640190fd5b6015546004805460408051630d0e30db60e41b815290516001600160a01b039092169263d0e30db0928592808301926000929182900301818588803b158015610bca57600080fd5b505af1158015610bde573d6000803e3d6000fd5b505060048054604080516370a0823160e01b81523093810193909352518695506001600160a01b0390911693506370a0823192506024808301926020929190829003018186803b158015610c3157600080fd5b505afa158015610c45573d6000803e3d6000fd5b505050506040513d6020811015610c5b57600080fd5b505114610c97576040805162461bcd60e51b8152602060048201526005602482015264042eecae8d60db1b604482015290519081900360640190fd5b60048054600b546040805163a9059cbb60e01b81526001600160a01b0392831694810194909452602484018590525191169163a9059cbb9160448083019260209291908290030181600087803b158015610cf057600080fd5b505af1158015610d04573d6000803e3d6000fd5b505050506040513d6020811015610d1a57600080fd5b5050600554604080516370a0823160e01b815230600482015290516000926001600160a01b0316916370a08231916024808301926020929190829003018186803b158015610d6757600080fd5b505afa158015610d7b573d6000803e3d6000fd5b505050506040513d6020811015610d9157600080fd5b5051600b54600554919250610db3916001600160a01b039081169116836119c4565b600b54604080516335313c2160e11b815230600482015290516001600160a01b0390921691636a627842916024808201926020929091908290030181600087803b158015610e0057600080fd5b505af1158015610e14573d6000803e3d6000fd5b505050506040513d6020811015610e2a57600080fd5b5050600b54604080516370a0823160e01b815230600482015290516001600160a01b03909216916370a0823191602480820192602092909190829003018186803b158015610e7757600080fd5b505afa158015610e8b573d6000803e3d6000fd5b505050506040513d6020811015610ea157600080fd5b50516014819055610eee576040805162461bcd60e51b815260206004820152601260248201527113140818dc99585d1a5bdb8819985a5b195960721b604482015290519081900360640190fd5b6001546001600160a01b031615610f9c576001546040516000916001600160a01b03169047908381818185875af1925050503d8060008114610f4c576040519150601f19603f3d011682016040523d82523d6000602084013e610f51565b606091505b5050905080610f9a576040805162461bcd60e51b815260206004820152601060248201526f2a3930b739b332b9103330b4b632b21760811b604482015290519081900360640190fd5b505b610fbd82610706670de0b6b3a764000060145461182990919063ffffffff16565b6013819055611008576040805162461bcd60e51b815260206004820152601260248201527113140818dc99585d1a5bdb8819985a5b195960721b604482015290519081900360640190fd5b50506016805460ff19166001179055565b60155481565b60135481565b60025481565b60085481565b60165460ff16611078576040805162461bcd60e51b815260206004820152600d60248201526c0853140819d95b995c985d1959609a1b604482015290519081900360640190fd5b33600090815260096020908152604080832080549084905560179092528220805492905590806110ef576040805162461bcd60e51b815260206004820152601c60248201527f4e6f7468696e6720746f20636c61696d2c206d6f766520616c6f6e6700000000604482015290519081900360640190fd5b81811061110957336000908152600a602052604090208190555b600061112c670de0b6b3a76400006107066013548561182990919063ffffffff16565b600b546040805163a9059cbb60e01b81523360048201526024810184905290519293506001600160a01b039091169163a9059cbb916044808201926020929091908290030181600087803b15801561118357600080fd5b505af1158015611197573d6000803e3d6000fd5b505050506040513d60208110156111ad57600080fd5b5050604080513381526020810183905281517f586e28f4f60b4d906fc69694ea6d7fe5c5668730ce3286d7af8eca868f3c2760929181900390910190a1505050565b6111f76119c0565b6000546001600160a01b03908116911614611247576040805162461bcd60e51b81526020600482018190526024820152600080516020611d7e833981519152604482015290519081900360640190fd5b678ac7230489e8000081101580156112685750686c6b935b8bbd4000008111155b61127157600080fd5b600d55565b61127e6119c0565b6000546001600160a01b039081169116146112ce576040805162461bcd60e51b81526020600482018190526024820152600080516020611d7e833981519152604482015290519081900360640190fd5b681b1ae4d6e2ef50000081101580156112f15750690a968163f0a57b4000008111155b6112fa57600080fd5b600e55565b60096020526000908152604090205481565b600f5481565b60115481565b6113256119c0565b6000546001600160a01b03908116911614611375576040805162461bcd60e51b81526020600482018190526024820152600080516020611d7e833981519152604482015290519081900360640190fd5b600080546040516001600160a01b03909116907f8be0079c531659141344cd1fd0a4f28419497f9722a3daafe3b4186f6b6457e0908390a3600080546001600160a01b0319169055565b60125460ff1681565b6113d06119c0565b6000546001600160a01b03908116911614611420576040805162461bcd60e51b81526020600482018190526024820152600080516020611d7e833981519152604482015290519081900360640190fd5b80158061143c57506103e8811015801561143c57506113888111155b61144557600080fd5b600355565b6114526119c0565b6000546001600160a01b039081169116146114a2576040805162461bcd60e51b81526020600482018190526024820152600080516020611d7e833981519152604482015290519081900360640190fd5b67016345785d8a000081101580156114c25750671bc16d674ec800008111155b6114cb57600080fd5b600c55565b6000546001600160a01b031690565b6001546001600160a01b031681565b6114f66119c0565b6000546001600160a01b03908116911614611546576040805162461bcd60e51b81526020600482018190526024820152600080516020611d7e833981519152604482015290519081900360640190fd5b611c20811015801561155b5750621275008111155b611599576040805162461bcd60e51b815260206004820152600a602482015269042d8ceca98cadccee8d60b31b604482015290519081900360640190fd5b601055565b60105481565b60035481565b600a6020526000908152604090205481565b6115c4610664565b611608576040805162461bcd60e51b815260206004820152601060248201526f214c474520696e2070726f677265737360801b604482015290519081900360640190fd5b6116106106a8565b565b61161a6119c0565b6000546001600160a01b0390811691161461166a576040805162461bcd60e51b81526020600482018190526024820152600080516020611d7e833981519152604482015290519081900360640190fd5b60018110156116af576040805162461bcd60e51b815260206004820152600c60248201526b042daead8e8d2a0cae48ae8d60a31b604482015290519081900360640190fd5b600f55565b6116bc6119c0565b6000546001600160a01b0390811691161461170c576040805162461bcd60e51b81526020600482018190526024820152600080516020611d7e833981519152604482015290519081900360640190fd5b6001600160a01b0381166117515760405162461bcd60e51b8152600401808060200182810382526026815260200180611d116026913960400191505060405180910390fd5b600080546040516001600160a01b03808516939216917f8be0079c531659141344cd1fd0a4f28419497f9722a3daafe3b4186f6b6457e091a3600080546001600160a01b0319166001600160a01b0392909216919091179055565b60176020526000908152604090205481565b601154151590565b600082820183811015611820576040805162461bcd60e51b815260206004820152601b60248201527f536166654d6174683a206164646974696f6e206f766572666c6f770000000000604482015290519081900360640190fd5b90505b92915050565b60008261183857506000611823565b8282028284828161184557fe5b04146118205760405162461bcd60e51b8152600401808060200182810382526021815260200180611d5d6021913960400191505060405180910390fd5b600061182083836040518060400160405280601a81526020017f536166654d6174683a206469766973696f6e206279207a65726f000000000000815250611a1b565b600081848411156119535760405162461bcd60e51b81526004018080602001828103825283818151815260200191508051906020019080838360005b83811015611918578181015183820152602001611900565b50505050905090810190601f1680156119455780820380516001836020036101000a031916815260200191505b509250505060405180910390fd5b50508183035b9392505050565b604080516001600160a01b0380861660248301528416604482015260648082018490528251808303909101815260849091019091526020810180516001600160e01b03166323b872dd60e01b1790526119ba908590611a80565b50505050565b3390565b604080516001600160a01b038416602482015260448082018490528251808303909101815260649091019091526020810180516001600160e01b031663a9059cbb60e01b179052611a16908490611a80565b505050565b60008183611a6a5760405162461bcd60e51b8152602060048201818152835160248401528351909283926044909101919085019080838360008315611918578181015183820152602001611900565b506000838581611a7657fe5b0495945050505050565b6060611ad5826040518060400160405280602081526020017f5361666545524332303a206c6f772d6c6576656c2063616c6c206661696c6564815250856001600160a01b0316611b319092919063ffffffff16565b805190915015611a1657808060200190516020811015611af457600080fd5b5051611a165760405162461bcd60e51b815260040180806020018281038252602a815260200180611d9e602a913960400191505060405180910390fd5b6060611b408484600085611b48565b949350505050565b606082471015611b895760405162461bcd60e51b8152600401808060200182810382526026815260200180611d376026913960400191505060405180910390fd5b611b9285611ca4565b611be3576040805162461bcd60e51b815260206004820152601d60248201527f416464726573733a2063616c6c20746f206e6f6e2d636f6e7472616374000000604482015290519081900360640190fd5b60006060866001600160a01b031685876040518082805190602001908083835b60208310611c225780518252601f199092019160209182019101611c03565b6001836020036101000a03801982511681845116808217855250505050505090500191505060006040518083038185875af1925050503d8060008114611c84576040519150601f19603f3d011682016040523d82523d6000602084013e611c89565b606091505b5091509150611c99828286611caa565b979650505050505050565b3b151590565b60608315611cb9575081611959565b825115611cc95782518084602001fd5b60405162461bcd60e51b815260206004820181815284516024840152845185939192839260440191908501908083836000831561191857818101518382015260200161190056fe4f776e61626c653a206e6577206f776e657220697320746865207a65726f2061646472657373416464726573733a20696e73756666696369656e742062616c616e636520666f722063616c6c536166654d6174683a206d756c7469706c69636174696f6e206f766572666c6f774f776e61626c653a2063616c6c6572206973206e6f7420746865206f776e65725361666545524332303a204552433230206f7065726174696f6e20646964206e6f742073756363656564a26469706673582212209f0eca6b9e5871fe1a668f9c566085c2ad6e698e37da26de1db15b55a5ff5a8564736f6c634300060c0033",
  "immutableReferences": {},
  "source": "// SPDX-License-Identifier: Apache-2.0\npragma solidity >=0.6.12;\nimport \"@openzeppelin/contracts/utils/Address.sol\";\nimport \"@openzeppelin/contracts/token/ERC20/IERC20.sol\";\nimport \"@openzeppelin/contracts/token/ERC20/SafeERC20.sol\";\nimport \"./Ownable.sol\";\nimport \"./utils/Console.sol\";\nimport \"./interfaces/IWETH.sol\";\nimport \"./interfaces/IUniswapV2Pair.sol\";\nimport \"./interfaces/IUniswapV2Factory.sol\";\nimport \"./interfaces/IUniswapV2Router02.sol\";\n\ncontract MultiSwapLGE is Ownable {\n  using SafeMath for uint256;\n  using Address for address;\n  using SafeERC20 for IERC20;\n\n  event LPTokenClaimed(address dst, uint value);\n  event LiquidityAdded(address indexed dst, uint value);\n\n  address public fund;\n  uint256 public fundFee;\n  uint256 public fundPctLiq = 2000;\n  uint256 constant FUND_BASE = 10000;\n\n  uint256 constant MIN_FUND_PCT = 1000;\n  uint256 constant MAX_FUND_PCT = 5000;\n  uint256 constant MIN_LGE_LENGTH = 2 hours;\n  uint256 constant MAX_LGE_LENGTH = 14 days;\n  uint256 constant MIN_MULTI_PER_ETH = 1;\n  uint256 constant MIN_MIN_ETH = 1 ether / 10;\n  uint256 constant MAX_MIN_ETH = 2 ether;\n  uint256 constant MIN_MAX_ETH = 10 ether;\n  uint256 constant MAX_MAX_ETH = 2000 ether;\n  uint256 constant MIN_CAP = 500 ether;\n  uint256 constant MAX_CAP = 50_000 ether;\n  uint256 constant PRECISION = 1e18;\n\n  IWETH Iweth;\n  IERC20 IMULTI;\n  IUniswapV2Factory uniswapFactory;\n  IUniswapV2Router02 uniswapRouterV2;\n\n  uint256 public airdropTotal;\n  mapping (address => uint256) public registeredAirdrop;\n  mapping (address => uint256) public confirmedAirdrop;\n\n  IUniswapV2Pair public IPAIR;\n  uint256 minEth = 1 ether / 2;\n  uint256 maxEth = 100 ether;\n  uint256 cap = 1000 ether;\n  uint256 public multiPerEth = 3000;\n  uint256 public lgeLength = 7 days;\n  uint256 public contractStartTimestamp;\n  bool public LGEFinished;\n  uint256 public LPperETHUnit;\n  uint256 public totalLPTokensMinted;\n  uint256 public totalETHContributed;\n  bool public LPGenerationCompleted;\n  mapping (address => uint)  public ethContributed;\n\n  constructor(address multi, address owner, address _fund) public Ownable(owner) {\n    fund = _fund;\n    uniswapFactory = IUniswapV2Factory(0x5C69bEe701ef814a2B6a3EDD4B1652CB9cc5aA6f);\n    uniswapRouterV2 = IUniswapV2Router02(0x7a250d5630B4cF539739dF2C5dAcb4c659F2488D);\n\n    IMULTI = IERC20(multi);\n    address WETH = uniswapRouterV2.WETH();\n    Iweth = IWETH(WETH);\n    address _pair = uniswapFactory.getPair(WETH, multi);\n    require(_pair == address(0), 'pair must not exist');\n    IPAIR = IUniswapV2Pair(uniswapFactory.createPair(WETH, multi));\n  }\n\n  function registerAirdrop(uint256 total) external {\n    airdropTotal += total;\n    registeredAirdrop[msg.sender] = registeredAirdrop[msg.sender] + total;\n  }\n\n  function setMinEth(uint256 _minEth) onlyOwner external {\n    require(_minEth >= MIN_MIN_ETH && _minEth <= MAX_MIN_ETH);\n    minEth = _minEth;\n  }\n\n  function setMaxEth(uint256 _maxEth) onlyOwner external {\n    require(_maxEth >= MIN_MAX_ETH && _maxEth <= MAX_MAX_ETH);\n    maxEth = _maxEth;\n  }\n\n  function setCap(uint256 _cap) onlyOwner external {\n    require(_cap >= MIN_CAP && _cap <= MAX_CAP);\n    cap = _cap;\n  }\n\n  function setFundPctLiq(uint256 _fundPctLiq) onlyOwner external {\n    require(_fundPctLiq == 0 || (_fundPctLiq >= MIN_FUND_PCT && _fundPctLiq <= MAX_FUND_PCT));\n    fundPctLiq = _fundPctLiq;\n  }\n\n  function setMultiPerEth(uint256 _multiPerEth) onlyOwner external {\n    require(_multiPerEth >= MIN_MULTI_PER_ETH, '!multiPerEth');\n    multiPerEth = _multiPerEth;\n  }\n\n  function setLGELength(uint256 _lgeLength) onlyOwner external {\n    require(_lgeLength >= MIN_LGE_LENGTH && _lgeLength <= MAX_LGE_LENGTH, '!lgeLength');\n    lgeLength = _lgeLength;\n  }\n\n  function startLGE() onlyOwner external {\n    contractStartTimestamp = block.timestamp;\n  }\n\n  function _LGEStarted() internal view returns (bool) {\n    return contractStartTimestamp != 0;\n  }\n\n  function setLGEFinished() public onlyOwner {\n    LGEFinished = true;\n  }\n\n  function lgeInProgress() public view returns (bool) {\n    if (!_LGEStarted() || LGEFinished) {\n        return false;\n    }\n    return contractStartTimestamp.add(lgeLength) > block.timestamp;\n  }\n\n  function emergencyRescueEth(address to) onlyOwner external {\n    require(to != address(0), '!to');\n    require(block.timestamp >= contractStartTimestamp.add(lgeLength).add(2 days), 'must be 2 days after end of lge');\n    (bool success, ) = to.call.value(address(this).balance)(\"\");\n    require(success, \"Transfer failed.\");\n  }\n\n  function generateLPTokens() public {\n    require(lgeInProgress() == false, \"LGE still in progress\");\n    require(LPGenerationCompleted == false, \"LP tokens already generated\");\n    uint256 total = totalETHContributed; // gas\n\n    //Wrap eth\n    Iweth.deposit{ value: total }();\n    require(IERC20(address(Iweth)).balanceOf(address(this)) == total, '!weth');\n    Iweth.transfer(address(IPAIR), total);\n\n    uint256 multiBalance = IMULTI.balanceOf(address(this));\n    IMULTI.safeTransfer(address(IPAIR), multiBalance);\n    IPAIR.mint(address(this));\n    totalLPTokensMinted = IPAIR.balanceOf(address(this));\n    require(totalLPTokensMinted != 0 , \"LP creation failed\");\n    if (fund != address(0)) {\n      // send remaining ETH to fund\n      (bool success, ) = fund.call.value(address(this).balance)(\"\");\n      require(success, \"Transfer failed.\");\n    }\n    // Calculate LP tokens per eth\n    LPperETHUnit = totalLPTokensMinted.mul(PRECISION).div(total);\n    require(LPperETHUnit != 0 , \"LP creation failed\");\n    LPGenerationCompleted = true;\n  }\n\n  receive() external payable {\n    require(lgeInProgress(), \"!LGE in progress\");\n    _addLiquidity();\n  }\n\n  function addLiquidity() public payable {\n    require(lgeInProgress(), \"!LGE in progress\");\n    _addLiquidity();\n  }\n\n  function _addLiquidity() internal {\n    require(msg.value >= minEth, '!minEth');\n    uint256 fee = msg.value.mul(fundPctLiq).div(FUND_BASE);\n    fundFee = fundFee.add(fee);\n    uint256 contrib = msg.value.sub(fee, '!fee');\n    ethContributed[msg.sender] += contrib;\n    require(ethContributed[msg.sender] <= maxEth);\n    totalETHContributed = totalETHContributed.add(contrib);\n    require(totalETHContributed <= cap, '!cap');\n    uint256 amount = contrib * multiPerEth;\n    if (amount > 0) {\n      IMULTI.safeTransferFrom(fund, address(this), amount);\n    }\n    emit LiquidityAdded(msg.sender, msg.value);\n  }\n\n  function claimLPTokens() public {\n    require(LPGenerationCompleted, \"!LP generated\");\n    uint256 airdrop = registeredAirdrop[msg.sender]; //gas\n    registeredAirdrop[msg.sender] = 0;\n    uint256 contributed = ethContributed[msg.sender]; // gas\n    ethContributed[msg.sender] = 0;\n    require(contributed > 0 , \"Nothing to claim, move along\");\n    if (contributed >= airdrop) {\n      confirmedAirdrop[msg.sender] = contributed;\n    }\n    uint256 amountLPToTransfer = contributed.mul(LPperETHUnit).div(PRECISION);\n    IPAIR.transfer(msg.sender, amountLPToTransfer);\n    emit LPTokenClaimed(msg.sender, amountLPToTransfer);\n  }\n\n}\n",
  "sourcePath": "/run/media/bill/Rekoner-0/protocols/multiswap-contracts/contracts/MultiSwapLGE.sol",
  "compiler": {
    "name": "solc",
    "version": "0.6.12+commit.27d51765.Emscripten.clang"
  },
  "schemaVersion": "3.2.3",
  "updatedAt": "2021-02-18T23:44:15.816Z",
  "devdoc": {
    "kind": "dev",
    "methods": {
      "owner()": {
        "details": "Returns the address of the current owner."
      },
      "renounceOwnership()": {
        "details": "Leaves the contract without owner. It will not be possible to call `onlyOwner` functions anymore. Can only be called by the current owner. NOTE: Renouncing ownership will leave the contract without an owner, thereby removing any functionality that is only available to the owner."
      },
      "transferOwnership(address)": {
        "details": "Transfers ownership of the contract to a new account (`newOwner`). Can only be called by the current owner."
      }
    },
    "version": 1
  },
  "userdoc": {
    "kind": "user",
    "methods": {},
    "version": 1
  }
}